{
  "_format": "hh-sol-artifact-1",
  "contractName": "PixelDevsUkraineDonation",
  "sourceName": "contracts/PixelDevsUkraineDonation.sol",
  "abi": [
    {
      "inputs": [],
      "stateMutability": "nonpayable",
      "type": "constructor"
    },
    {
      "anonymous": false,
      "inputs": [
        {
          "indexed": true,
          "internalType": "address",
          "name": "owner",
          "type": "address"
        },
        {
          "indexed": true,
          "internalType": "address",
          "name": "approved",
          "type": "address"
        },
        {
          "indexed": true,
          "internalType": "uint256",
          "name": "tokenId",
          "type": "uint256"
        }
      ],
      "name": "Approval",
      "type": "event"
    },
    {
      "anonymous": false,
      "inputs": [
        {
          "indexed": true,
          "internalType": "address",
          "name": "owner",
          "type": "address"
        },
        {
          "indexed": true,
          "internalType": "address",
          "name": "operator",
          "type": "address"
        },
        {
          "indexed": false,
          "internalType": "bool",
          "name": "approved",
          "type": "bool"
        }
      ],
      "name": "ApprovalForAll",
      "type": "event"
    },
    {
      "anonymous": false,
      "inputs": [
        {
          "indexed": true,
          "internalType": "string",
          "name": "oldValue",
          "type": "string"
        },
        {
          "indexed": true,
          "internalType": "string",
          "name": "newValue",
          "type": "string"
        }
      ],
      "name": "BaseURIUpdated",
      "type": "event"
    },
    {
      "anonymous": false,
      "inputs": [
        {
          "indexed": true,
          "internalType": "bool",
          "name": "oldValue",
          "type": "bool"
        },
        {
          "indexed": true,
          "internalType": "bool",
          "name": "newValue",
          "type": "bool"
        }
      ],
      "name": "ContractStateUpdated",
      "type": "event"
    },
    {
      "anonymous": false,
      "inputs": [
        {
          "indexed": true,
          "internalType": "address",
          "name": "minter",
          "type": "address"
        },
        {
          "indexed": true,
          "internalType": "uint256",
          "name": "tokenId",
          "type": "uint256"
        },
        {
          "indexed": true,
          "internalType": "string",
          "name": "tier",
          "type": "string"
        }
      ],
      "name": "LogTokenMinted",
      "type": "event"
    },
    {
      "anonymous": false,
      "inputs": [
        {
          "indexed": true,
          "internalType": "bytes32",
          "name": "role",
          "type": "bytes32"
        },
        {
          "indexed": true,
          "internalType": "bytes32",
          "name": "previousAdminRole",
          "type": "bytes32"
        },
        {
          "indexed": true,
          "internalType": "bytes32",
          "name": "newAdminRole",
          "type": "bytes32"
        }
      ],
      "name": "RoleAdminChanged",
      "type": "event"
    },
    {
      "anonymous": false,
      "inputs": [
        {
          "indexed": true,
          "internalType": "bytes32",
          "name": "role",
          "type": "bytes32"
        },
        {
          "indexed": true,
          "internalType": "address",
          "name": "account",
          "type": "address"
        },
        {
          "indexed": true,
          "internalType": "address",
          "name": "sender",
          "type": "address"
        }
      ],
      "name": "RoleGranted",
      "type": "event"
    },
    {
      "anonymous": false,
      "inputs": [
        {
          "indexed": true,
          "internalType": "bytes32",
          "name": "role",
          "type": "bytes32"
        },
        {
          "indexed": true,
          "internalType": "address",
          "name": "account",
          "type": "address"
        },
        {
          "indexed": true,
          "internalType": "address",
          "name": "sender",
          "type": "address"
        }
      ],
      "name": "RoleRevoked",
      "type": "event"
    },
    {
      "anonymous": false,
      "inputs": [
        {
          "indexed": false,
          "internalType": "address",
          "name": "oldRecipient",
          "type": "address"
        },
        {
          "indexed": false,
          "internalType": "uint256",
          "name": "oldValue",
          "type": "uint256"
        },
        {
          "indexed": false,
          "internalType": "address",
          "name": "newRecipient",
          "type": "address"
        },
        {
          "indexed": false,
          "internalType": "uint256",
          "name": "newValue",
          "type": "uint256"
        }
      ],
      "name": "RoyaltyUpdated",
      "type": "event"
    },
    {
      "anonymous": false,
      "inputs": [
        {
          "indexed": true,
          "internalType": "string",
          "name": "tier",
          "type": "string"
        },
        {
          "indexed": true,
          "internalType": "uint256",
          "name": "oldValue",
          "type": "uint256"
        },
        {
          "indexed": true,
          "internalType": "uint256",
          "name": "newValue",
          "type": "uint256"
        }
      ],
      "name": "TierPricingUpdated",
      "type": "event"
    },
    {
      "anonymous": false,
      "inputs": [
        {
          "indexed": true,
          "internalType": "address",
          "name": "from",
          "type": "address"
        },
        {
          "indexed": true,
          "internalType": "address",
          "name": "to",
          "type": "address"
        },
        {
          "indexed": true,
          "internalType": "uint256",
          "name": "tokenId",
          "type": "uint256"
        }
      ],
      "name": "Transfer",
      "type": "event"
    },
    {
      "anonymous": false,
      "inputs": [
        {
          "indexed": true,
          "internalType": "address",
          "name": "oldValue",
          "type": "address"
        },
        {
          "indexed": true,
          "internalType": "address",
          "name": "newValue",
          "type": "address"
        }
      ],
      "name": "WithdrawWalletUpdated",
      "type": "event"
    },
    {
      "inputs": [],
      "name": "DEFAULT_ADMIN_ROLE",
      "outputs": [
        {
          "internalType": "bytes32",
          "name": "",
          "type": "bytes32"
        }
      ],
      "stateMutability": "view",
      "type": "function"
    },
    {
      "inputs": [],
      "name": "WITHDRAW_ROLE",
      "outputs": [
        {
          "internalType": "bytes32",
          "name": "",
          "type": "bytes32"
        }
      ],
      "stateMutability": "view",
      "type": "function"
    },
    {
      "inputs": [
        {
          "internalType": "address",
          "name": "to",
          "type": "address"
        },
        {
          "internalType": "uint256",
          "name": "tokenId",
          "type": "uint256"
        }
      ],
      "name": "approve",
      "outputs": [],
      "stateMutability": "nonpayable",
      "type": "function"
    },
    {
      "inputs": [
        {
          "internalType": "address",
          "name": "owner",
          "type": "address"
        }
      ],
      "name": "balanceOf",
      "outputs": [
        {
          "internalType": "uint256",
          "name": "",
          "type": "uint256"
        }
      ],
      "stateMutability": "view",
      "type": "function"
    },
    {
      "inputs": [],
      "name": "baseURI",
      "outputs": [
        {
          "internalType": "string",
          "name": "",
          "type": "string"
        }
      ],
      "stateMutability": "view",
      "type": "function"
    },
    {
      "inputs": [],
      "name": "contractActive",
      "outputs": [
        {
          "internalType": "bool",
          "name": "",
          "type": "bool"
        }
      ],
      "stateMutability": "view",
      "type": "function"
    },
    {
      "inputs": [
        {
          "internalType": "uint256",
          "name": "tokenId",
          "type": "uint256"
        }
      ],
      "name": "getApproved",
      "outputs": [
        {
          "internalType": "address",
          "name": "",
          "type": "address"
        }
      ],
      "stateMutability": "view",
      "type": "function"
    },
    {
      "inputs": [
        {
          "internalType": "bytes32",
          "name": "role",
          "type": "bytes32"
        }
      ],
      "name": "getRoleAdmin",
      "outputs": [
        {
          "internalType": "bytes32",
          "name": "",
          "type": "bytes32"
        }
      ],
      "stateMutability": "view",
      "type": "function"
    },
    {
      "inputs": [
        {
          "internalType": "bytes32",
          "name": "role",
          "type": "bytes32"
        },
        {
          "internalType": "address",
          "name": "account",
          "type": "address"
        }
      ],
      "name": "grantRole",
      "outputs": [],
      "stateMutability": "nonpayable",
      "type": "function"
    },
    {
      "inputs": [
        {
          "internalType": "bytes32",
          "name": "role",
          "type": "bytes32"
        },
        {
          "internalType": "address",
          "name": "account",
          "type": "address"
        }
      ],
      "name": "hasRole",
      "outputs": [
        {
          "internalType": "bool",
          "name": "",
          "type": "bool"
        }
      ],
      "stateMutability": "view",
      "type": "function"
    },
    {
      "inputs": [
        {
          "internalType": "address",
          "name": "owner",
          "type": "address"
        },
        {
          "internalType": "address",
          "name": "operator",
          "type": "address"
        }
      ],
      "name": "isApprovedForAll",
      "outputs": [
        {
          "internalType": "bool",
          "name": "",
          "type": "bool"
        }
      ],
      "stateMutability": "view",
      "type": "function"
    },
    {
      "inputs": [],
      "name": "mint",
      "outputs": [],
      "stateMutability": "payable",
      "type": "function"
    },
    {
      "inputs": [],
      "name": "name",
      "outputs": [
        {
          "internalType": "string",
          "name": "",
          "type": "string"
        }
      ],
      "stateMutability": "view",
      "type": "function"
    },
    {
      "inputs": [
        {
          "internalType": "uint256",
          "name": "tokenId",
          "type": "uint256"
        }
      ],
      "name": "ownerOf",
      "outputs": [
        {
          "internalType": "address",
          "name": "",
          "type": "address"
        }
      ],
      "stateMutability": "view",
      "type": "function"
    },
    {
      "inputs": [
        {
          "internalType": "bytes32",
          "name": "role",
          "type": "bytes32"
        },
        {
          "internalType": "address",
          "name": "account",
          "type": "address"
        }
      ],
      "name": "renounceRole",
      "outputs": [],
      "stateMutability": "nonpayable",
      "type": "function"
    },
    {
      "inputs": [
        {
          "internalType": "bytes32",
          "name": "role",
          "type": "bytes32"
        },
        {
          "internalType": "address",
          "name": "account",
          "type": "address"
        }
      ],
      "name": "revokeRole",
      "outputs": [],
      "stateMutability": "nonpayable",
      "type": "function"
    },
    {
      "inputs": [
        {
          "internalType": "uint256",
          "name": "",
          "type": "uint256"
        },
        {
          "internalType": "uint256",
          "name": "value",
          "type": "uint256"
        }
      ],
      "name": "royaltyInfo",
      "outputs": [
        {
          "internalType": "address",
          "name": "receiver",
          "type": "address"
        },
        {
          "internalType": "uint256",
          "name": "royaltyAmount",
          "type": "uint256"
        }
      ],
      "stateMutability": "view",
      "type": "function"
    },
    {
      "inputs": [
        {
          "internalType": "address",
          "name": "from",
          "type": "address"
        },
        {
          "internalType": "address",
          "name": "to",
          "type": "address"
        },
        {
          "internalType": "uint256",
          "name": "tokenId",
          "type": "uint256"
        }
      ],
      "name": "safeTransferFrom",
      "outputs": [],
      "stateMutability": "nonpayable",
      "type": "function"
    },
    {
      "inputs": [
        {
          "internalType": "address",
          "name": "from",
          "type": "address"
        },
        {
          "internalType": "address",
          "name": "to",
          "type": "address"
        },
        {
          "internalType": "uint256",
          "name": "tokenId",
          "type": "uint256"
        },
        {
          "internalType": "bytes",
          "name": "_data",
          "type": "bytes"
        }
      ],
      "name": "safeTransferFrom",
      "outputs": [],
      "stateMutability": "nonpayable",
      "type": "function"
    },
    {
      "inputs": [
        {
          "internalType": "address",
          "name": "operator",
          "type": "address"
        },
        {
          "internalType": "bool",
          "name": "approved",
          "type": "bool"
        }
      ],
      "name": "setApprovalForAll",
      "outputs": [],
      "stateMutability": "nonpayable",
      "type": "function"
    },
    {
      "inputs": [
        {
          "internalType": "string",
          "name": "_newBaseURI",
          "type": "string"
        }
      ],
      "name": "setBaseURI",
      "outputs": [],
      "stateMutability": "nonpayable",
      "type": "function"
    },
    {
      "inputs": [
        {
          "internalType": "uint256",
          "name": "amount",
          "type": "uint256"
        }
      ],
      "name": "setRoyalties",
      "outputs": [],
      "stateMutability": "nonpayable",
      "type": "function"
    },
    {
      "inputs": [
        {
          "internalType": "uint256",
          "name": "steel",
          "type": "uint256"
        },
        {
          "internalType": "uint256",
          "name": "bronze",
          "type": "uint256"
        },
        {
          "internalType": "uint256",
          "name": "silver",
          "type": "uint256"
        },
        {
          "internalType": "uint256",
          "name": "gold",
          "type": "uint256"
        },
        {
          "internalType": "uint256",
          "name": "diamond",
          "type": "uint256"
        },
        {
          "internalType": "uint256",
          "name": "platinum",
          "type": "uint256"
        }
      ],
      "name": "setTierPricing",
      "outputs": [],
      "stateMutability": "nonpayable",
      "type": "function"
    },
    {
      "inputs": [
        {
          "internalType": "address",
          "name": "_withdrawWallet",
          "type": "address"
        }
      ],
      "name": "setWithdrawWallet",
      "outputs": [],
      "stateMutability": "nonpayable",
      "type": "function"
    },
    {
      "inputs": [
        {
          "internalType": "bytes4",
          "name": "interfaceId",
          "type": "bytes4"
        }
      ],
      "name": "supportsInterface",
      "outputs": [
        {
          "internalType": "bool",
          "name": "",
          "type": "bool"
        }
      ],
      "stateMutability": "view",
      "type": "function"
    },
    {
      "inputs": [],
      "name": "symbol",
      "outputs": [
        {
          "internalType": "string",
          "name": "",
          "type": "string"
        }
      ],
      "stateMutability": "view",
      "type": "function"
    },
    {
      "inputs": [
        {
          "internalType": "string",
          "name": "",
          "type": "string"
        }
      ],
      "name": "tiers",
      "outputs": [
        {
          "internalType": "uint256",
          "name": "",
          "type": "uint256"
        }
      ],
      "stateMutability": "view",
      "type": "function"
    },
    {
      "inputs": [],
      "name": "toggleContractState",
      "outputs": [],
      "stateMutability": "nonpayable",
      "type": "function"
    },
    {
      "inputs": [
        {
          "internalType": "uint256",
          "name": "tokenId",
          "type": "uint256"
        }
      ],
      "name": "tokenURI",
      "outputs": [
        {
          "internalType": "string",
          "name": "",
          "type": "string"
        }
      ],
      "stateMutability": "view",
      "type": "function"
    },
    {
      "inputs": [
        {
          "internalType": "address",
          "name": "from",
          "type": "address"
        },
        {
          "internalType": "address",
          "name": "to",
          "type": "address"
        },
        {
          "internalType": "uint256",
          "name": "tokenId",
          "type": "uint256"
        }
      ],
      "name": "transferFrom",
      "outputs": [],
      "stateMutability": "nonpayable",
      "type": "function"
    },
    {
      "inputs": [],
      "name": "withdraw",
      "outputs": [],
      "stateMutability": "nonpayable",
      "type": "function"
    },
    {
      "inputs": [],
      "name": "withdrawWallet",
      "outputs": [
        {
          "internalType": "address",
          "name": "",
          "type": "address"
        }
      ],
      "stateMutability": "view",
      "type": "function"
    }
  ],
  "bytecode": "0x60e06040526036608081815290620036c360a03980516200002991600a9160209091019062000564565b50600b805460ff19166001179055600d80546001600160a01b03191673633b7218644b83d57d90e7299039ebab19698e9c1790553480156200006a57600080fd5b50604080518082018252601881527f506978656c44657673556b7261696e65446f6e6174696f6e000000000000000060208083019182528351808501909452600e84526d50584c4445562d554b5241494e4560901b908401528151919291620000d69160009162000564565b508051620000ec90600190602084019062000564565b50506001600755506200010160003362000140565b6200012d7f5d8e12c39142ff96d79d04d15d1ba1269e4fe57bb9d26f43523628b34ba108ec3362000140565b6200013a6103e8620001e5565b620007c1565b60008281526008602090815260408083206001600160a01b038516845290915290205460ff16620001e15760008281526008602090815260408083206001600160a01b03851684529091529020805460ff19166001179055620001a03390565b6001600160a01b0316816001600160a01b0316837f2f8788117e7eff1d82e926ec794901d17c78024a50270940304540a733656f0d60405160405180910390a45b5050565b6000620001f38133620001ff565b620001e13083620002a5565b60008281526008602090815260408083206001600160a01b038516845290915290205460ff16620001e1576200024b816001600160a01b03166014620003a460201b6200178f1760201c565b620002618360206200178f620003a4821b17811c565b604051602001620002749291906200063d565b60408051601f198184030181529082905262461bcd60e51b82526200029c91600401620006b6565b60405180910390fd5b600954604080516001600160a01b038084168252600160a01b90930462ffffff16602082015291841690820152606081018290527fd4ad75825e8d1c1e74bc1b56ec2653bd9a7bee36e96f6f03c055f444b375568d9060800160405180910390a16127108111156200035a5760405162461bcd60e51b815260206004820152601a60248201527f45524332393831526f79616c746965733a20546f6f206869676800000000000060448201526064016200029c565b604080518082019091526001600160a01b0390921680835262ffffff909116602090920182905260098054600160a01b9093026001600160b81b0319909316909117919091179055565b60606000620003b583600262000701565b620003c290600262000723565b6001600160401b03811115620003dc57620003dc6200073e565b6040519080825280601f01601f19166020018201604052801562000407576020820181803683370190505b509050600360fc1b8160008151811062000425576200042562000754565b60200101906001600160f81b031916908160001a905350600f60fb1b8160018151811062000457576200045762000754565b60200101906001600160f81b031916908160001a90535060006200047d84600262000701565b6200048a90600162000723565b90505b60018111156200050c576f181899199a1a9b1b9c1cb0b131b232b360811b85600f1660108110620004c257620004c262000754565b1a60f81b828281518110620004db57620004db62000754565b60200101906001600160f81b031916908160001a90535060049490941c9362000504816200076a565b90506200048d565b5083156200055d5760405162461bcd60e51b815260206004820181905260248201527f537472696e67733a20686578206c656e67746820696e73756666696369656e7460448201526064016200029c565b9392505050565b828054620005729062000784565b90600052602060002090601f016020900481019282620005965760008555620005e1565b82601f10620005b157805160ff1916838001178555620005e1565b82800160010185558215620005e1579182015b82811115620005e1578251825591602001919060010190620005c4565b50620005ef929150620005f3565b5090565b5b80821115620005ef5760008155600101620005f4565b60005b83811015620006275781810151838201526020016200060d565b8381111562000637576000848401525b50505050565b7f416363657373436f6e74726f6c3a206163636f756e7420000000000000000000815260008351620006778160178501602088016200060a565b7001034b99036b4b9b9b4b733903937b6329607d1b6017918401918201528351620006aa8160288401602088016200060a565b01602801949350505050565b6020815260008251806020840152620006d78160408501602087016200060a565b601f01601f19169190910160400192915050565b634e487b7160e01b600052601160045260246000fd5b60008160001904831182151516156200071e576200071e620006eb565b500290565b60008219821115620007395762000739620006eb565b500190565b634e487b7160e01b600052604160045260246000fd5b634e487b7160e01b600052603260045260246000fd5b6000816200077c576200077c620006eb565b506000190190565b600181811c908216806200079957607f821691505b60208210811415620007bb57634e487b7160e01b600052602260045260246000fd5b50919050565b612ef280620007d16000396000f3fe6080604052600436106101e35760003560e01c80636352211e11610102578063a22cb46511610095578063e02023a111610064578063e02023a1146105ad578063e289fcb6146105e1578063e985e9c5146105fb578063fe551b051461064457600080fd5b8063a22cb4651461052d578063b88d4fde1461054d578063c87b56dd1461056d578063d547741f1461058d57600080fd5b806391d14854116100d157806391d148541461049d5780639373f432146104e357806395d89b4114610503578063a217fddf1461051857600080fd5b80636352211e146104285780636c0360eb1461044857806370a082311461045d57806385d178f41461047d57600080fd5b806324fde1e21161017a57806336568abe1161014957806336568abe146103b35780633ccfd60b146103d357806342842e0e146103e857806355f804b31461040857600080fd5b806324fde1e21461031f5780632a55205a146103345780632b80183f146103735780632f2ff15d1461039357600080fd5b80630cd9c9dd116101b65780630cd9c9dd146102995780631249c58b146102b957806323b872dd146102c1578063248a9ca3146102e157600080fd5b806301ffc9a7146101e857806306fdde031461021d578063081812fc1461023f578063095ea7b314610277575b600080fd5b3480156101f457600080fd5b50610208610203366004612850565b61067c565b60405190151581526020015b60405180910390f35b34801561022957600080fd5b5061023261068d565b60405161021491906128c5565b34801561024b57600080fd5b5061025f61025a3660046128d8565b61071f565b6040516001600160a01b039091168152602001610214565b34801561028357600080fd5b5061029761029236600461290d565b6107b9565b005b3480156102a557600080fd5b506102976102b4366004612937565b6108eb565b610297610c5d565b3480156102cd57600080fd5b506102976102dc36600461297a565b611024565b3480156102ed57600080fd5b506103116102fc3660046128d8565b60009081526008602052604090206001015490565b604051908152602001610214565b34801561032b57600080fd5b506102976110ab565b34801561034057600080fd5b5061035461034f3660046129b6565b611102565b604080516001600160a01b039093168352602083019190915201610214565b34801561037f57600080fd5b5061029761038e3660046128d8565b611157565b34801561039f57600080fd5b506102976103ae3660046129d8565b611171565b3480156103bf57600080fd5b506102976103ce3660046129d8565b611197565b3480156103df57600080fd5b5061029761121f565b3480156103f457600080fd5b5061029761040336600461297a565b611283565b34801561041457600080fd5b50610297610423366004612a90565b61129e565b34801561043457600080fd5b5061025f6104433660046128d8565b611312565b34801561045457600080fd5b5061023261139d565b34801561046957600080fd5b50610311610478366004612ad9565b61142b565b34801561048957600080fd5b50600d5461025f906001600160a01b031681565b3480156104a957600080fd5b506102086104b83660046129d8565b60009182526008602090815260408084206001600160a01b0393909316845291905290205460ff1690565b3480156104ef57600080fd5b506102976104fe366004612ad9565b6114c5565b34801561050f57600080fd5b5061023261153b565b34801561052457600080fd5b50610311600081565b34801561053957600080fd5b50610297610548366004612af4565b61154a565b34801561055957600080fd5b50610297610568366004612b30565b611555565b34801561057957600080fd5b506102326105883660046128d8565b6115e3565b34801561059957600080fd5b506102976105a83660046129d8565b611769565b3480156105b957600080fd5b506103117f5d8e12c39142ff96d79d04d15d1ba1269e4fe57bb9d26f43523628b34ba108ec81565b3480156105ed57600080fd5b50600b546102089060ff1681565b34801561060757600080fd5b50610208610616366004612bac565b6001600160a01b03918216600090815260056020908152604080832093909416825291909152205460ff1690565b34801561065057600080fd5b5061031161065f366004612a90565b8051602081830181018051600c8252928201919093012091525481565b60006106878261195b565b92915050565b60606000805461069c90612bd6565b80601f01602080910402602001604051908101604052809291908181526020018280546106c890612bd6565b80156107155780601f106106ea57610100808354040283529160200191610715565b820191906000526020600020905b8154815290600101906020018083116106f857829003601f168201915b5050505050905090565b6000818152600260205260408120546001600160a01b031661079d5760405162461bcd60e51b815260206004820152602c60248201527f4552433732313a20617070726f76656420717565727920666f72206e6f6e657860448201526b34b9ba32b73a103a37b5b2b760a11b60648201526084015b60405180910390fd5b506000908152600460205260409020546001600160a01b031690565b60006107c482611312565b9050806001600160a01b0316836001600160a01b0316141561084e5760405162461bcd60e51b815260206004820152602160248201527f4552433732313a20617070726f76616c20746f2063757272656e74206f776e6560448201527f72000000000000000000000000000000000000000000000000000000000000006064820152608401610794565b336001600160a01b038216148061086a575061086a8133610616565b6108dc5760405162461bcd60e51b815260206004820152603860248201527f4552433732313a20617070726f76652063616c6c6572206973206e6f74206f7760448201527f6e6572206e6f7220617070726f76656420666f7220616c6c00000000000000006064820152608401610794565b6108e68383611999565b505050565b60006108f78133611a14565b86600c60405161091290641cdd19595b60da1b815260050190565b90815260405190819003602001812054641cdd19595b60da1b825290600501604051908190038120907fc3bc9193735d04679abbad1bc82dd8317fe8623287b45e84003e66f2e4510f2090600090a485600c60405161097d906562726f6e7a6560d01b815260060190565b908152604051908190036020018120546562726f6e7a6560d01b825290600601604051908190038120907fc3bc9193735d04679abbad1bc82dd8317fe8623287b45e84003e66f2e4510f2090600090a484600c6040516109e9906539b4b63b32b960d11b815260060190565b908152604051908190036020018120546539b4b63b32b960d11b825290600601604051908190038120907fc3bc9193735d04679abbad1bc82dd8317fe8623287b45e84003e66f2e4510f2090600090a483600c604051610a53906319dbdb1960e21b815260040190565b908152604051908190036020018120546319dbdb1960e21b825290600401604051908190038120907fc3bc9193735d04679abbad1bc82dd8317fe8623287b45e84003e66f2e4510f2090600090a482600c604051610abe9066191a585b5bdb9960ca1b815260070190565b9081526040519081900360200181205466191a585b5bdb9960ca1b825290600701604051908190038120907fc3bc9193735d04679abbad1bc82dd8317fe8623287b45e84003e66f2e4510f2090600090a481600c604051610b2d9067706c6174696e756d60c01b815260080190565b9081526040519081900360200181205467706c6174696e756d60c01b825290600801604051908190038120907fc3bc9193735d04679abbad1bc82dd8317fe8623287b45e84003e66f2e4510f2090600090a486600c604051610b9a90641cdd19595b60da1b815260050190565b90815260408051918290036020018220929092556562726f6e7a6560d01b8152600c6006808301829052835192839003602690810184209a909a556539b4b63b32b960d11b835282018190528251918290039098018120969096556319dbdb1960e21b8652600486018790528051958690036024018620949094555066191a585b5bdb9960ca1b84526007840185905282519384900360270184209190915567706c6174696e756d60c01b83526008830193909352519081900360280190205550565b60026007541415610cb05760405162461bcd60e51b815260206004820152601f60248201527f5265656e7472616e637947756172643a207265656e7472616e742063616c6c006044820152606401610794565b6002600755604051641cdd19595b60da1b8152600c90600501908152602001604051809103902054341015610d735760405162461bcd60e51b815260206004820152604160248201527f506c656173652073656e6420656e6f756768204d4154494320746f206d65657460448201527f20746865206d696e696d756d207468726573686f6c64206f662061207469657260648201527f2e00000000000000000000000000000000000000000000000000000000000000608482015260a401610794565b600b5460ff16610e115760405162461bcd60e51b815260206004820152606060248201527f5468697320636f6e747261637420686173206265656e2064656163746976617460448201527f656420627920746865206f776e657220616e6420646f6573206e6f742063757260648201527f72656e746c792061636365707420616e796d6f726520646f6e6174696f6e732e608482015260a401610794565b610e1f600e80546001019055565b6000610e2a600e5490565b9050610e363382611a94565b60408051808201825260058152641cdd19595b60da1b6020820152905167706c6174696e756d60c01b8152600c906008019081526020016040518091039020543410610ea15750604080518082019091526008815267706c6174696e756d60c01b6020820152610fcf565b60405166191a585b5bdb9960ca1b8152600c906007019081526020016040518091039020543410610ef05750604080518082019091526007815266191a585b5bdb9960ca1b6020820152610fcf565b6040516319dbdb1960e21b8152600c906004019081526020016040518091039020543410610f39575060408051808201909152600481526319dbdb1960e21b6020820152610fcf565b6040516539b4b63b32b960d11b8152600c906006019081526020016040518091039020543410610f86575060408051808201909152600681526539b4b63b32b960d11b6020820152610fcf565b6040516562726f6e7a6560d01b8152600c906006019081526020016040518091039020543410610fcf575060408051808201909152600681526562726f6e7a6560d01b60208201525b80604051610fdd9190612c11565b60405190819003812090839033907fd24e8d35e8d0bc0851b0d6249b090ae8ba18fe7cbff4df2e7dc4d4d591f59f0a90600090a461101b8282611aae565b50506001600755565b61102e3382611b57565b6110a05760405162461bcd60e51b815260206004820152603160248201527f4552433732313a207472616e736665722063616c6c6572206973206e6f74206f60448201527f776e6572206e6f7220617070726f7665640000000000000000000000000000006064820152608401610794565b6108e6838383611c4a565b60006110b78133611a14565b600b5460405160ff90911615908115907fe3048a2fbdb5d0325f217d8d1345240961758ee1c8bc3d78f69edacaca8d873190600090a350600b805460ff19811660ff90911615179055565b604080518082019091526009546001600160a01b038116808352600160a01b90910462ffffff16602083018190529091600091612710906111439086612c43565b61114d9190612c78565b9150509250929050565b60006111638133611a14565b61116d3083611e24565b5050565b60008281526008602052604090206001015461118d8133611a14565b6108e68383611f39565b6001600160a01b03811633146112155760405162461bcd60e51b815260206004820152602f60248201527f416363657373436f6e74726f6c3a2063616e206f6e6c792072656e6f756e636560448201527f20726f6c657320666f722073656c6600000000000000000000000000000000006064820152608401610794565b61116d8282611fdb565b7f5d8e12c39142ff96d79d04d15d1ba1269e4fe57bb9d26f43523628b34ba108ec61124a8133611a14565b600d546040516001600160a01b03909116904780156108fc02916000818181858888f1935050505015801561116d573d6000803e3d6000fd5b6108e683838360405180602001604052806000815250611555565b60006112aa8133611a14565b816040516112b89190612c11565b6040518091039020600a6040516112cf9190612c8c565b604051908190038120907f309b29ded109b9e28fb9885757b3e0096eb75c51d23aa4635d68bcd569f6adc190600090a381516108e690600a90602085019061279e565b6000818152600260205260408120546001600160a01b0316806106875760405162461bcd60e51b815260206004820152602960248201527f4552433732313a206f776e657220717565727920666f72206e6f6e657869737460448201527f656e7420746f6b656e00000000000000000000000000000000000000000000006064820152608401610794565b600a80546113aa90612bd6565b80601f01602080910402602001604051908101604052809291908181526020018280546113d690612bd6565b80156114235780601f106113f857610100808354040283529160200191611423565b820191906000526020600020905b81548152906001019060200180831161140657829003601f168201915b505050505081565b60006001600160a01b0382166114a95760405162461bcd60e51b815260206004820152602a60248201527f4552433732313a2062616c616e636520717565727920666f7220746865207a6560448201527f726f2061646472657373000000000000000000000000000000000000000000006064820152608401610794565b506001600160a01b031660009081526003602052604090205490565b60006114d18133611a14565b600d546040516001600160a01b038085169216907f1a1281546ab2ddcd5ce0feb2e11fbe991326fa5936d8b8444506706dd3a6fa7f90600090a350600d805473ffffffffffffffffffffffffffffffffffffffff19166001600160a01b0392909216919091179055565b60606001805461069c90612bd6565b61116d33838361205e565b61155f3383611b57565b6115d15760405162461bcd60e51b815260206004820152603160248201527f4552433732313a207472616e736665722063616c6c6572206973206e6f74206f60448201527f776e6572206e6f7220617070726f7665640000000000000000000000000000006064820152608401610794565b6115dd8484848461212d565b50505050565b6000818152600260205260409020546060906001600160a01b03166116705760405162461bcd60e51b815260206004820152603160248201527f45524337323155524953746f726167653a2055524920717565727920666f722060448201527f6e6f6e6578697374656e7420746f6b656e0000000000000000000000000000006064820152608401610794565b6000828152600660205260408120805461168990612bd6565b80601f01602080910402602001604051908101604052809291908181526020018280546116b590612bd6565b80156117025780601f106116d757610100808354040283529160200191611702565b820191906000526020600020905b8154815290600101906020018083116116e557829003601f168201915b5050505050905060006117136121ab565b9050805160001415611726575092915050565b815115611758578082604051602001611740929190612d28565b60405160208183030381529060405292505050919050565b611761846121ba565b949350505050565b6000828152600860205260409020600101546117858133611a14565b6108e68383611fdb565b6060600061179e836002612c43565b6117a9906002612d57565b67ffffffffffffffff8111156117c1576117c1612a04565b6040519080825280601f01601f1916602001820160405280156117eb576020820181803683370190505b509050600360fc1b8160008151811061180657611806612d6f565b60200101906001600160f81b031916908160001a9053507f78000000000000000000000000000000000000000000000000000000000000008160018151811061185157611851612d6f565b60200101906001600160f81b031916908160001a9053506000611875846002612c43565b611880906001612d57565b90505b6001811115611905577f303132333435363738396162636465660000000000000000000000000000000085600f16601081106118c1576118c1612d6f565b1a60f81b8282815181106118d7576118d7612d6f565b60200101906001600160f81b031916908160001a90535060049490941c936118fe81612d85565b9050611883565b5083156119545760405162461bcd60e51b815260206004820181905260248201527f537472696e67733a20686578206c656e67746820696e73756666696369656e746044820152606401610794565b9392505050565b60006001600160e01b031982167f2a55205a0000000000000000000000000000000000000000000000000000000014806106875750610687826122a2565b6000818152600460205260409020805473ffffffffffffffffffffffffffffffffffffffff19166001600160a01b03841690811790915581906119db82611312565b6001600160a01b03167f8c5be1e5ebec7d5bd14f71427d1e84f3dd0314c0f7b2291e5b200ac8c7c3b92560405160405180910390a45050565b60008281526008602090815260408083206001600160a01b038516845290915290205460ff1661116d57611a52816001600160a01b0316601461178f565b611a5d83602061178f565b604051602001611a6e929190612d9c565b60408051601f198184030181529082905262461bcd60e51b8252610794916004016128c5565b61116d8282604051806020016040528060008152506122e0565b6000828152600260205260409020546001600160a01b0316611b385760405162461bcd60e51b815260206004820152602e60248201527f45524337323155524953746f726167653a2055524920736574206f66206e6f6e60448201527f6578697374656e7420746f6b656e0000000000000000000000000000000000006064820152608401610794565b600082815260066020908152604090912082516108e69284019061279e565b6000818152600260205260408120546001600160a01b0316611bd05760405162461bcd60e51b815260206004820152602c60248201527f4552433732313a206f70657261746f7220717565727920666f72206e6f6e657860448201526b34b9ba32b73a103a37b5b2b760a11b6064820152608401610794565b6000611bdb83611312565b9050806001600160a01b0316846001600160a01b03161480611c165750836001600160a01b0316611c0b8461071f565b6001600160a01b0316145b8061176157506001600160a01b0380821660009081526005602090815260408083209388168352929052205460ff16611761565b826001600160a01b0316611c5d82611312565b6001600160a01b031614611cd95760405162461bcd60e51b815260206004820152602560248201527f4552433732313a207472616e736665722066726f6d20696e636f72726563742060448201527f6f776e65720000000000000000000000000000000000000000000000000000006064820152608401610794565b6001600160a01b038216611d545760405162461bcd60e51b8152602060048201526024808201527f4552433732313a207472616e7366657220746f20746865207a65726f2061646460448201527f72657373000000000000000000000000000000000000000000000000000000006064820152608401610794565b611d5f600082611999565b6001600160a01b0383166000908152600360205260408120805460019290611d88908490612e1d565b90915550506001600160a01b0382166000908152600360205260408120805460019290611db6908490612d57565b9091555050600081815260026020526040808220805473ffffffffffffffffffffffffffffffffffffffff19166001600160a01b0386811691821790925591518493918716917fddf252ad1be2c89b69c2b068fc378daa952ba7f163c4a11628f55a4df523b3ef91a4505050565b600954604080516001600160a01b038084168252600160a01b90930462ffffff16602082015291841690820152606081018290527fd4ad75825e8d1c1e74bc1b56ec2653bd9a7bee36e96f6f03c055f444b375568d9060800160405180910390a1612710811115611ed75760405162461bcd60e51b815260206004820152601a60248201527f45524332393831526f79616c746965733a20546f6f20686967680000000000006044820152606401610794565b604080518082019091526001600160a01b0390921680835262ffffff909116602090920182905260098054600160a01b9093027fffffffffffffffffff0000000000000000000000000000000000000000000000909316909117919091179055565b60008281526008602090815260408083206001600160a01b038516845290915290205460ff1661116d5760008281526008602090815260408083206001600160a01b03851684529091529020805460ff19166001179055611f973390565b6001600160a01b0316816001600160a01b0316837f2f8788117e7eff1d82e926ec794901d17c78024a50270940304540a733656f0d60405160405180910390a45050565b60008281526008602090815260408083206001600160a01b038516845290915290205460ff161561116d5760008281526008602090815260408083206001600160a01b0385168085529252808320805460ff1916905551339285917ff6391f5c32d9c69d2a47ea670b442974b53935d1edc7fd64eb21e047a839171b9190a45050565b816001600160a01b0316836001600160a01b031614156120c05760405162461bcd60e51b815260206004820152601960248201527f4552433732313a20617070726f766520746f2063616c6c6572000000000000006044820152606401610794565b6001600160a01b03838116600081815260056020908152604080832094871680845294825291829020805460ff191686151590811790915591519182527f17307eab39ab6107e8899845ad3d59bd9653f200f220920489ca2b5937696c31910160405180910390a3505050565b612138848484611c4a565b6121448484848461235e565b6115dd5760405162461bcd60e51b815260206004820152603260248201527f4552433732313a207472616e7366657220746f206e6f6e20455243373231526560448201527131b2b4bb32b91034b6b83632b6b2b73a32b960711b6064820152608401610794565b6060600a805461069c90612bd6565b6000818152600260205260409020546060906001600160a01b03166122475760405162461bcd60e51b815260206004820152602f60248201527f4552433732314d657461646174613a2055524920717565727920666f72206e6f60448201527f6e6578697374656e7420746f6b656e00000000000000000000000000000000006064820152608401610794565b60006122516121ab565b905060008151116122715760405180602001604052806000815250611954565b8061227b846124b6565b60405160200161228c929190612d28565b6040516020818303038152906040529392505050565b60006001600160e01b031982167f7965db0b0000000000000000000000000000000000000000000000000000000014806106875750610687826125b4565b6122ea838361264f565b6122f7600084848461235e565b6108e65760405162461bcd60e51b815260206004820152603260248201527f4552433732313a207472616e7366657220746f206e6f6e20455243373231526560448201527131b2b4bb32b91034b6b83632b6b2b73a32b960711b6064820152608401610794565b60006001600160a01b0384163b156124ab57604051630a85bd0160e11b81526001600160a01b0385169063150b7a02906123a2903390899088908890600401612e34565b602060405180830381600087803b1580156123bc57600080fd5b505af19250505080156123ec575060408051601f3d908101601f191682019092526123e991810190612e70565b60015b612491573d80801561241a576040519150601f19603f3d011682016040523d82523d6000602084013e61241f565b606091505b5080516124895760405162461bcd60e51b815260206004820152603260248201527f4552433732313a207472616e7366657220746f206e6f6e20455243373231526560448201527131b2b4bb32b91034b6b83632b6b2b73a32b960711b6064820152608401610794565b805181602001fd5b6001600160e01b031916630a85bd0160e11b149050611761565b506001949350505050565b6060816124da5750506040805180820190915260018152600360fc1b602082015290565b8160005b811561250457806124ee81612e8d565b91506124fd9050600a83612c78565b91506124de565b60008167ffffffffffffffff81111561251f5761251f612a04565b6040519080825280601f01601f191660200182016040528015612549576020820181803683370190505b5090505b84156117615761255e600183612e1d565b915061256b600a86612ea8565b612576906030612d57565b60f81b81838151811061258b5761258b612d6f565b60200101906001600160f81b031916908160001a9053506125ad600a86612c78565b945061254d565b60006001600160e01b031982167f80ac58cd00000000000000000000000000000000000000000000000000000000148061261757506001600160e01b031982167f5b5e139f00000000000000000000000000000000000000000000000000000000145b8061068757507f01ffc9a7000000000000000000000000000000000000000000000000000000006001600160e01b0319831614610687565b6001600160a01b0382166126a55760405162461bcd60e51b815260206004820181905260248201527f4552433732313a206d696e7420746f20746865207a65726f20616464726573736044820152606401610794565b6000818152600260205260409020546001600160a01b03161561270a5760405162461bcd60e51b815260206004820152601c60248201527f4552433732313a20746f6b656e20616c7265616479206d696e746564000000006044820152606401610794565b6001600160a01b0382166000908152600360205260408120805460019290612733908490612d57565b9091555050600081815260026020526040808220805473ffffffffffffffffffffffffffffffffffffffff19166001600160a01b03861690811790915590518392907fddf252ad1be2c89b69c2b068fc378daa952ba7f163c4a11628f55a4df523b3ef908290a45050565b8280546127aa90612bd6565b90600052602060002090601f0160209004810192826127cc5760008555612812565b82601f106127e557805160ff1916838001178555612812565b82800160010185558215612812579182015b828111156128125782518255916020019190600101906127f7565b5061281e929150612822565b5090565b5b8082111561281e5760008155600101612823565b6001600160e01b03198116811461284d57600080fd5b50565b60006020828403121561286257600080fd5b813561195481612837565b60005b83811015612888578181015183820152602001612870565b838111156115dd5750506000910152565b600081518084526128b181602086016020860161286d565b601f01601f19169290920160200192915050565b6020815260006119546020830184612899565b6000602082840312156128ea57600080fd5b5035919050565b80356001600160a01b038116811461290857600080fd5b919050565b6000806040838503121561292057600080fd5b612929836128f1565b946020939093013593505050565b60008060008060008060c0878903121561295057600080fd5b505084359660208601359650604086013595606081013595506080810135945060a0013592509050565b60008060006060848603121561298f57600080fd5b612998846128f1565b92506129a6602085016128f1565b9150604084013590509250925092565b600080604083850312156129c957600080fd5b50508035926020909101359150565b600080604083850312156129eb57600080fd5b823591506129fb602084016128f1565b90509250929050565b634e487b7160e01b600052604160045260246000fd5b600067ffffffffffffffff80841115612a3557612a35612a04565b604051601f8501601f19908116603f01168101908282118183101715612a5d57612a5d612a04565b81604052809350858152868686011115612a7657600080fd5b858560208301376000602087830101525050509392505050565b600060208284031215612aa257600080fd5b813567ffffffffffffffff811115612ab957600080fd5b8201601f81018413612aca57600080fd5b61176184823560208401612a1a565b600060208284031215612aeb57600080fd5b611954826128f1565b60008060408385031215612b0757600080fd5b612b10836128f1565b915060208301358015158114612b2557600080fd5b809150509250929050565b60008060008060808587031215612b4657600080fd5b612b4f856128f1565b9350612b5d602086016128f1565b925060408501359150606085013567ffffffffffffffff811115612b8057600080fd5b8501601f81018713612b9157600080fd5b612ba087823560208401612a1a565b91505092959194509250565b60008060408385031215612bbf57600080fd5b612bc8836128f1565b91506129fb602084016128f1565b600181811c90821680612bea57607f821691505b60208210811415612c0b57634e487b7160e01b600052602260045260246000fd5b50919050565b60008251612c2381846020870161286d565b9190910192915050565b634e487b7160e01b600052601160045260246000fd5b6000816000190483118215151615612c5d57612c5d612c2d565b500290565b634e487b7160e01b600052601260045260246000fd5b600082612c8757612c87612c62565b500490565b600080835481600182811c915080831680612ca857607f831692505b6020808410821415612cc857634e487b7160e01b86526022600452602486fd5b818015612cdc5760018114612ced57612d1a565b60ff19861689528489019650612d1a565b60008a81526020902060005b86811015612d125781548b820152908501908301612cf9565b505084890196505b509498975050505050505050565b60008351612d3a81846020880161286d565b835190830190612d4e81836020880161286d565b01949350505050565b60008219821115612d6a57612d6a612c2d565b500190565b634e487b7160e01b600052603260045260246000fd5b600081612d9457612d94612c2d565b506000190190565b7f416363657373436f6e74726f6c3a206163636f756e7420000000000000000000815260008351612dd481601785016020880161286d565b7f206973206d697373696e6720726f6c65200000000000000000000000000000006017918401918201528351612e1181602884016020880161286d565b01602801949350505050565b600082821015612e2f57612e2f612c2d565b500390565b60006001600160a01b03808716835280861660208401525083604083015260806060830152612e666080830184612899565b9695505050505050565b600060208284031215612e8257600080fd5b815161195481612837565b6000600019821415612ea157612ea1612c2d565b5060010190565b600082612eb757612eb7612c62565b50069056fea2646970667358221220bf8f2ea300a00bf837fac307b2b6acf76d1dc576bbdd68a3e152e4daa2a1b42464736f6c63430008090033697066733a2f2f516d5a6943555843797462626e71437a4a41756a584c78655153374d6b4539544a4b79596256364c6a53696e4e342f",
  "linkReferences": {},
  "deployedLinkReferences": {}
}