{
  "_format": "hh-sol-artifact-1",
  "contractName": "PixelDevsUkraineDonation",
  "sourceName": "contracts/PixelDevsUkraineDonation.sol",
  "abi": [
    {
      "inputs": [],
      "stateMutability": "nonpayable",
      "type": "constructor"
    },
    {
      "anonymous": false,
      "inputs": [
        {
          "indexed": true,
          "internalType": "address",
          "name": "owner",
          "type": "address"
        },
        {
          "indexed": true,
          "internalType": "address",
          "name": "approved",
          "type": "address"
        },
        {
          "indexed": true,
          "internalType": "uint256",
          "name": "tokenId",
          "type": "uint256"
        }
      ],
      "name": "Approval",
      "type": "event"
    },
    {
      "anonymous": false,
      "inputs": [
        {
          "indexed": true,
          "internalType": "address",
          "name": "owner",
          "type": "address"
        },
        {
          "indexed": true,
          "internalType": "address",
          "name": "operator",
          "type": "address"
        },
        {
          "indexed": false,
          "internalType": "bool",
          "name": "approved",
          "type": "bool"
        }
      ],
      "name": "ApprovalForAll",
      "type": "event"
    },
    {
      "anonymous": false,
      "inputs": [
        {
          "indexed": true,
          "internalType": "string",
          "name": "oldValue",
          "type": "string"
        },
        {
          "indexed": true,
          "internalType": "string",
          "name": "newValue",
          "type": "string"
        }
      ],
      "name": "BaseURIUpdated",
      "type": "event"
    },
    {
      "anonymous": false,
      "inputs": [
        {
          "indexed": true,
          "internalType": "bool",
          "name": "oldValue",
          "type": "bool"
        },
        {
          "indexed": true,
          "internalType": "bool",
          "name": "newValue",
          "type": "bool"
        }
      ],
      "name": "ContractStateUpdated",
      "type": "event"
    },
    {
      "anonymous": false,
      "inputs": [
        {
          "indexed": true,
          "internalType": "address",
          "name": "minter",
          "type": "address"
        },
        {
          "indexed": true,
          "internalType": "uint256",
          "name": "tokenId",
          "type": "uint256"
        },
        {
          "indexed": true,
          "internalType": "string",
          "name": "tier",
          "type": "string"
        }
      ],
      "name": "LogTokenMinted",
      "type": "event"
    },
    {
      "anonymous": false,
      "inputs": [
        {
          "indexed": true,
          "internalType": "address",
          "name": "previousOwner",
          "type": "address"
        },
        {
          "indexed": true,
          "internalType": "address",
          "name": "newOwner",
          "type": "address"
        }
      ],
      "name": "OwnershipTransferred",
      "type": "event"
    },
    {
      "anonymous": false,
      "inputs": [
        {
          "indexed": true,
          "internalType": "string",
          "name": "tier",
          "type": "string"
        },
        {
          "indexed": true,
          "internalType": "uint256",
          "name": "oldValue",
          "type": "uint256"
        },
        {
          "indexed": true,
          "internalType": "uint256",
          "name": "newValue",
          "type": "uint256"
        }
      ],
      "name": "TierPricingUpdated",
      "type": "event"
    },
    {
      "anonymous": false,
      "inputs": [
        {
          "indexed": true,
          "internalType": "address",
          "name": "from",
          "type": "address"
        },
        {
          "indexed": true,
          "internalType": "address",
          "name": "to",
          "type": "address"
        },
        {
          "indexed": true,
          "internalType": "uint256",
          "name": "tokenId",
          "type": "uint256"
        }
      ],
      "name": "Transfer",
      "type": "event"
    },
    {
      "inputs": [
        {
          "internalType": "address",
          "name": "to",
          "type": "address"
        },
        {
          "internalType": "uint256",
          "name": "tokenId",
          "type": "uint256"
        }
      ],
      "name": "approve",
      "outputs": [],
      "stateMutability": "nonpayable",
      "type": "function"
    },
    {
      "inputs": [
        {
          "internalType": "address",
          "name": "owner",
          "type": "address"
        }
      ],
      "name": "balanceOf",
      "outputs": [
        {
          "internalType": "uint256",
          "name": "",
          "type": "uint256"
        }
      ],
      "stateMutability": "view",
      "type": "function"
    },
    {
      "inputs": [],
      "name": "baseURI",
      "outputs": [
        {
          "internalType": "string",
          "name": "",
          "type": "string"
        }
      ],
      "stateMutability": "view",
      "type": "function"
    },
    {
      "inputs": [],
      "name": "contractActive",
      "outputs": [
        {
          "internalType": "bool",
          "name": "",
          "type": "bool"
        }
      ],
      "stateMutability": "view",
      "type": "function"
    },
    {
      "inputs": [
        {
          "internalType": "uint256",
          "name": "tokenId",
          "type": "uint256"
        }
      ],
      "name": "getApproved",
      "outputs": [
        {
          "internalType": "address",
          "name": "",
          "type": "address"
        }
      ],
      "stateMutability": "view",
      "type": "function"
    },
    {
      "inputs": [
        {
          "internalType": "address",
          "name": "owner",
          "type": "address"
        },
        {
          "internalType": "address",
          "name": "operator",
          "type": "address"
        }
      ],
      "name": "isApprovedForAll",
      "outputs": [
        {
          "internalType": "bool",
          "name": "",
          "type": "bool"
        }
      ],
      "stateMutability": "view",
      "type": "function"
    },
    {
      "inputs": [],
      "name": "mint",
      "outputs": [],
      "stateMutability": "payable",
      "type": "function"
    },
    {
      "inputs": [],
      "name": "name",
      "outputs": [
        {
          "internalType": "string",
          "name": "",
          "type": "string"
        }
      ],
      "stateMutability": "view",
      "type": "function"
    },
    {
      "inputs": [],
      "name": "owner",
      "outputs": [
        {
          "internalType": "address",
          "name": "",
          "type": "address"
        }
      ],
      "stateMutability": "view",
      "type": "function"
    },
    {
      "inputs": [
        {
          "internalType": "uint256",
          "name": "tokenId",
          "type": "uint256"
        }
      ],
      "name": "ownerOf",
      "outputs": [
        {
          "internalType": "address",
          "name": "",
          "type": "address"
        }
      ],
      "stateMutability": "view",
      "type": "function"
    },
    {
      "inputs": [],
      "name": "renounceOwnership",
      "outputs": [],
      "stateMutability": "nonpayable",
      "type": "function"
    },
    {
      "inputs": [
        {
          "internalType": "address",
          "name": "from",
          "type": "address"
        },
        {
          "internalType": "address",
          "name": "to",
          "type": "address"
        },
        {
          "internalType": "uint256",
          "name": "tokenId",
          "type": "uint256"
        }
      ],
      "name": "safeTransferFrom",
      "outputs": [],
      "stateMutability": "nonpayable",
      "type": "function"
    },
    {
      "inputs": [
        {
          "internalType": "address",
          "name": "from",
          "type": "address"
        },
        {
          "internalType": "address",
          "name": "to",
          "type": "address"
        },
        {
          "internalType": "uint256",
          "name": "tokenId",
          "type": "uint256"
        },
        {
          "internalType": "bytes",
          "name": "_data",
          "type": "bytes"
        }
      ],
      "name": "safeTransferFrom",
      "outputs": [],
      "stateMutability": "nonpayable",
      "type": "function"
    },
    {
      "inputs": [
        {
          "internalType": "address",
          "name": "operator",
          "type": "address"
        },
        {
          "internalType": "bool",
          "name": "approved",
          "type": "bool"
        }
      ],
      "name": "setApprovalForAll",
      "outputs": [],
      "stateMutability": "nonpayable",
      "type": "function"
    },
    {
      "inputs": [
        {
          "internalType": "string",
          "name": "_newBaseURI",
          "type": "string"
        }
      ],
      "name": "setBaseURI",
      "outputs": [],
      "stateMutability": "nonpayable",
      "type": "function"
    },
    {
      "inputs": [
        {
          "internalType": "uint256",
          "name": "steel",
          "type": "uint256"
        },
        {
          "internalType": "uint256",
          "name": "bronze",
          "type": "uint256"
        },
        {
          "internalType": "uint256",
          "name": "silver",
          "type": "uint256"
        },
        {
          "internalType": "uint256",
          "name": "gold",
          "type": "uint256"
        },
        {
          "internalType": "uint256",
          "name": "diamond",
          "type": "uint256"
        },
        {
          "internalType": "uint256",
          "name": "platinum",
          "type": "uint256"
        }
      ],
      "name": "setTierPricing",
      "outputs": [],
      "stateMutability": "nonpayable",
      "type": "function"
    },
    {
      "inputs": [
        {
          "internalType": "bytes4",
          "name": "interfaceId",
          "type": "bytes4"
        }
      ],
      "name": "supportsInterface",
      "outputs": [
        {
          "internalType": "bool",
          "name": "",
          "type": "bool"
        }
      ],
      "stateMutability": "view",
      "type": "function"
    },
    {
      "inputs": [],
      "name": "symbol",
      "outputs": [
        {
          "internalType": "string",
          "name": "",
          "type": "string"
        }
      ],
      "stateMutability": "view",
      "type": "function"
    },
    {
      "inputs": [
        {
          "internalType": "string",
          "name": "",
          "type": "string"
        }
      ],
      "name": "tiers",
      "outputs": [
        {
          "internalType": "uint256",
          "name": "",
          "type": "uint256"
        }
      ],
      "stateMutability": "view",
      "type": "function"
    },
    {
      "inputs": [],
      "name": "toggleContractState",
      "outputs": [],
      "stateMutability": "nonpayable",
      "type": "function"
    },
    {
      "inputs": [
        {
          "internalType": "uint256",
          "name": "tokenId",
          "type": "uint256"
        }
      ],
      "name": "tokenURI",
      "outputs": [
        {
          "internalType": "string",
          "name": "",
          "type": "string"
        }
      ],
      "stateMutability": "view",
      "type": "function"
    },
    {
      "inputs": [
        {
          "internalType": "address",
          "name": "from",
          "type": "address"
        },
        {
          "internalType": "address",
          "name": "to",
          "type": "address"
        },
        {
          "internalType": "uint256",
          "name": "tokenId",
          "type": "uint256"
        }
      ],
      "name": "transferFrom",
      "outputs": [],
      "stateMutability": "nonpayable",
      "type": "function"
    },
    {
      "inputs": [
        {
          "internalType": "address",
          "name": "newOwner",
          "type": "address"
        }
      ],
      "name": "transferOwnership",
      "outputs": [],
      "stateMutability": "nonpayable",
      "type": "function"
    },
    {
      "inputs": [],
      "name": "withdraw",
      "outputs": [],
      "stateMutability": "nonpayable",
      "type": "function"
    }
  ],
  "bytecode": "0x60e0604052603660808181529062002ac560a0398051620000299160099160209091019062000131565b50600a805460ff191660011790553480156200004457600080fd5b50604080518082018252601881527f506978656c44657673556b7261696e65446f6e6174696f6e000000000000000060208083019182528351808501909452600e84526d50584c4445562d554b5241494e4560901b908401528151919291620000b09160009162000131565b508051620000c690600190602084019062000131565b5050600160075550620000d933620000df565b62000214565b600880546001600160a01b038381166001600160a01b0319831681179093556040519116919082907f8be0079c531659141344cd1fd0a4f28419497f9722a3daafe3b4186f6b6457e090600090a35050565b8280546200013f90620001d7565b90600052602060002090601f016020900481019282620001635760008555620001ae565b82601f106200017e57805160ff1916838001178555620001ae565b82800160010185558215620001ae579182015b82811115620001ae57825182559160200191906001019062000191565b50620001bc929150620001c0565b5090565b5b80821115620001bc5760008155600101620001c1565b600181811c90821680620001ec57607f821691505b602082108114156200020e57634e487b7160e01b600052602260045260246000fd5b50919050565b6128a180620002246000396000f3fe60806040526004361061018b5760003560e01c80636c0360eb116100d6578063b88d4fde1161007f578063e985e9c511610059578063e985e9c514610418578063f2fde38b14610461578063fe551b051461048157600080fd5b8063b88d4fde146103be578063c87b56dd146103de578063e289fcb6146103fe57600080fd5b80638da5cb5b116100b05780638da5cb5b1461036b57806395d89b4114610389578063a22cb4651461039e57600080fd5b80636c0360eb1461031357806370a0823114610328578063715018a61461035657600080fd5b806323b872dd1161013857806342842e0e1161011257806342842e0e146102b357806355f804b3146102d35780636352211e146102f357600080fd5b806323b872dd1461026957806324fde1e2146102895780633ccfd60b1461029e57600080fd5b8063095ea7b311610169578063095ea7b31461021f5780630cd9c9dd146102415780631249c58b1461026157600080fd5b806301ffc9a71461019057806306fdde03146101c5578063081812fc146101e7575b600080fd5b34801561019c57600080fd5b506101b06101ab3660046122fb565b6104b9565b60405190151581526020015b60405180910390f35b3480156101d157600080fd5b506101da610556565b6040516101bc9190612370565b3480156101f357600080fd5b50610207610202366004612383565b6105e8565b6040516001600160a01b0390911681526020016101bc565b34801561022b57600080fd5b5061023f61023a3660046123b8565b610682565b005b34801561024d57600080fd5b5061023f61025c3660046123e2565b6107b4565b61023f610b73565b34801561027557600080fd5b5061023f610284366004612425565b610f8f565b34801561029557600080fd5b5061023f611016565b3480156102aa57600080fd5b5061023f6110b6565b3480156102bf57600080fd5b5061023f6102ce366004612425565b61113f565b3480156102df57600080fd5b5061023f6102ee3660046124ed565b61115a565b3480156102ff57600080fd5b5061020761030e366004612383565b611220565b34801561031f57600080fd5b506101da6112ab565b34801561033457600080fd5b50610348610343366004612536565b611339565b6040519081526020016101bc565b34801561036257600080fd5b5061023f6113d3565b34801561037757600080fd5b506008546001600160a01b0316610207565b34801561039557600080fd5b506101da611439565b3480156103aa57600080fd5b5061023f6103b9366004612551565b611448565b3480156103ca57600080fd5b5061023f6103d936600461258d565b611453565b3480156103ea57600080fd5b506101da6103f9366004612383565b6114e1565b34801561040a57600080fd5b50600a546101b09060ff1681565b34801561042457600080fd5b506101b0610433366004612609565b6001600160a01b03918216600090815260056020908152604080832093909416825291909152205460ff1690565b34801561046d57600080fd5b5061023f61047c366004612536565b611667565b34801561048d57600080fd5b5061034861049c3660046124ed565b8051602081830181018051600b8252928201919093012091525481565b60006001600160e01b031982167f80ac58cd00000000000000000000000000000000000000000000000000000000148061051c57506001600160e01b031982167f5b5e139f00000000000000000000000000000000000000000000000000000000145b8061055057507f01ffc9a7000000000000000000000000000000000000000000000000000000006001600160e01b03198316145b92915050565b6060600080546105659061263c565b80601f01602080910402602001604051908101604052809291908181526020018280546105919061263c565b80156105de5780601f106105b3576101008083540402835291602001916105de565b820191906000526020600020905b8154815290600101906020018083116105c157829003601f168201915b5050505050905090565b6000818152600260205260408120546001600160a01b03166106665760405162461bcd60e51b815260206004820152602c60248201527f4552433732313a20617070726f76656420717565727920666f72206e6f6e657860448201526b34b9ba32b73a103a37b5b2b760a11b60648201526084015b60405180910390fd5b506000908152600460205260409020546001600160a01b031690565b600061068d82611220565b9050806001600160a01b0316836001600160a01b031614156107175760405162461bcd60e51b815260206004820152602160248201527f4552433732313a20617070726f76616c20746f2063757272656e74206f776e6560448201527f7200000000000000000000000000000000000000000000000000000000000000606482015260840161065d565b336001600160a01b038216148061073357506107338133610433565b6107a55760405162461bcd60e51b815260206004820152603860248201527f4552433732313a20617070726f76652063616c6c6572206973206e6f74206f7760448201527f6e6572206e6f7220617070726f76656420666f7220616c6c0000000000000000606482015260840161065d565b6107af8383611746565b505050565b6008546001600160a01b0316331461080e5760405162461bcd60e51b815260206004820181905260248201527f4f776e61626c653a2063616c6c6572206973206e6f7420746865206f776e6572604482015260640161065d565b85600b60405161082990641cdd19595b60da1b815260050190565b90815260405190819003602001812054641cdd19595b60da1b825290600501604051908190038120907fc3bc9193735d04679abbad1bc82dd8317fe8623287b45e84003e66f2e4510f2090600090a484600b604051610894906562726f6e7a6560d01b815260060190565b908152604051908190036020018120546562726f6e7a6560d01b825290600601604051908190038120907fc3bc9193735d04679abbad1bc82dd8317fe8623287b45e84003e66f2e4510f2090600090a483600b604051610900906539b4b63b32b960d11b815260060190565b908152604051908190036020018120546539b4b63b32b960d11b825290600601604051908190038120907fc3bc9193735d04679abbad1bc82dd8317fe8623287b45e84003e66f2e4510f2090600090a482600b60405161096a906319dbdb1960e21b815260040190565b908152604051908190036020018120546319dbdb1960e21b825290600401604051908190038120907fc3bc9193735d04679abbad1bc82dd8317fe8623287b45e84003e66f2e4510f2090600090a481600b6040516109d59066191a585b5bdb9960ca1b815260070190565b9081526040519081900360200181205466191a585b5bdb9960ca1b825290600701604051908190038120907fc3bc9193735d04679abbad1bc82dd8317fe8623287b45e84003e66f2e4510f2090600090a480600b604051610a449067706c6174696e756d60c01b815260080190565b9081526040519081900360200181205467706c6174696e756d60c01b825290600801604051908190038120907fc3bc9193735d04679abbad1bc82dd8317fe8623287b45e84003e66f2e4510f2090600090a485600b604051610ab190641cdd19595b60da1b815260050190565b90815260408051918290036020018220929092556562726f6e7a6560d01b8152600b600680830182905283519283900360269081018420999099556539b4b63b32b960d11b835282018190528251918290039097018120959095556319dbdb1960e21b85526004850186905280519485900360240185209390935566191a585b5bdb9960ca1b84526007840185905282519384900360270184209190915567706c6174696e756d60c01b83526008830193909352519081900360280190205550565b60026007541415610bc65760405162461bcd60e51b815260206004820152601f60248201527f5265656e7472616e637947756172643a207265656e7472616e742063616c6c00604482015260640161065d565b6002600755604051641cdd19595b60da1b8152600b906005019081526020016040518091039020543410610c885760405162461bcd60e51b815260206004820152604960248201527f506c656173652073656e6420656e6f756768204d4154494320746f206d65657460448201527f20746865206d696e696d756d207468726573686f6c64206f662074686520535460648201527f45454c20746965722e0000000000000000000000000000000000000000000000608482015260a40161065d565b600a5460ff16610d265760405162461bcd60e51b815260206004820152606060248201527f5468697320636f6e747261637420686173206265656e2064656163746976617460448201527f656420627920746865206f776e657220616e6420646f6573206e6f742063757260648201527f72656e746c792061636365707420616e796d6f726520646f6e6174696f6e732e608482015260a40161065d565b610d34600c80546001019055565b6000610d3f600c5490565b9050610d4b33826117c1565b60408051808201825260058152641cdd19595b60da1b6020820152905167706c6174696e756d60c01b8152600b906008019081526020016040518091039020543410610db65750604080518082019091526008815267706c6174696e756d60c01b6020820152610ee4565b60405166191a585b5bdb9960ca1b8152600b906007019081526020016040518091039020543410610e055750604080518082019091526007815266191a585b5bdb9960ca1b6020820152610ee4565b6040516319dbdb1960e21b8152600b906004019081526020016040518091039020543410610e4e575060408051808201909152600481526319dbdb1960e21b6020820152610ee4565b6040516539b4b63b32b960d11b8152600b906006019081526020016040518091039020543410610e9b575060408051808201909152600681526539b4b63b32b960d11b6020820152610ee4565b6040516562726f6e7a6560d01b8152600b906006019081526020016040518091039020543410610ee4575060408051808201909152600681526562726f6e7a6560d01b60208201525b80604051610ef29190612677565b60405190819003812090839033907fd24e8d35e8d0bc0851b0d6249b090ae8ba18fe7cbff4df2e7dc4d4d591f59f0a90600090a4610f8682826040518060400160405280600481526020017f2e706e6700000000000000000000000000000000000000000000000000000000815250604051602001610f72929190612693565b6040516020818303038152906040526117db565b50506001600755565b610f993382611884565b61100b5760405162461bcd60e51b815260206004820152603160248201527f4552433732313a207472616e736665722063616c6c6572206973206e6f74206f60448201527f776e6572206e6f7220617070726f766564000000000000000000000000000000606482015260840161065d565b6107af838383611977565b6008546001600160a01b031633146110705760405162461bcd60e51b815260206004820181905260248201527f4f776e61626c653a2063616c6c6572206973206e6f7420746865206f776e6572604482015260640161065d565b600a805460ff19811660ff918216159081179092556040519116158015917fe3048a2fbdb5d0325f217d8d1345240961758ee1c8bc3d78f69edacaca8d873190600090a3565b6008546001600160a01b031633146111105760405162461bcd60e51b815260206004820181905260248201527f4f776e61626c653a2063616c6c6572206973206e6f7420746865206f776e6572604482015260640161065d565b60405133904780156108fc02916000818181858888f1935050505015801561113c573d6000803e3d6000fd5b50565b6107af83838360405180602001604052806000815250611453565b6008546001600160a01b031633146111b45760405162461bcd60e51b815260206004820181905260248201527f4f776e61626c653a2063616c6c6572206973206e6f7420746865206f776e6572604482015260640161065d565b806040516111c29190612677565b604051809103902060096040516111d991906126c2565b604051908190038120907f309b29ded109b9e28fb9885757b3e0096eb75c51d23aa4635d68bcd569f6adc190600090a3805161121c90600990602084019061224c565b5050565b6000818152600260205260408120546001600160a01b0316806105505760405162461bcd60e51b815260206004820152602960248201527f4552433732313a206f776e657220717565727920666f72206e6f6e657869737460448201527f656e7420746f6b656e0000000000000000000000000000000000000000000000606482015260840161065d565b600980546112b89061263c565b80601f01602080910402602001604051908101604052809291908181526020018280546112e49061263c565b80156113315780601f1061130657610100808354040283529160200191611331565b820191906000526020600020905b81548152906001019060200180831161131457829003601f168201915b505050505081565b60006001600160a01b0382166113b75760405162461bcd60e51b815260206004820152602a60248201527f4552433732313a2062616c616e636520717565727920666f7220746865207a6560448201527f726f206164647265737300000000000000000000000000000000000000000000606482015260840161065d565b506001600160a01b031660009081526003602052604090205490565b6008546001600160a01b0316331461142d5760405162461bcd60e51b815260206004820181905260248201527f4f776e61626c653a2063616c6c6572206973206e6f7420746865206f776e6572604482015260640161065d565b6114376000611b51565b565b6060600180546105659061263c565b61121c338383611bb0565b61145d3383611884565b6114cf5760405162461bcd60e51b815260206004820152603160248201527f4552433732313a207472616e736665722063616c6c6572206973206e6f74206f60448201527f776e6572206e6f7220617070726f766564000000000000000000000000000000606482015260840161065d565b6114db84848484611c7f565b50505050565b6000818152600260205260409020546060906001600160a01b031661156e5760405162461bcd60e51b815260206004820152603160248201527f45524337323155524953746f726167653a2055524920717565727920666f722060448201527f6e6f6e6578697374656e7420746f6b656e000000000000000000000000000000606482015260840161065d565b600082815260066020526040812080546115879061263c565b80601f01602080910402602001604051908101604052809291908181526020018280546115b39061263c565b80156116005780601f106115d557610100808354040283529160200191611600565b820191906000526020600020905b8154815290600101906020018083116115e357829003601f168201915b505050505090506000611611611cfd565b9050805160001415611624575092915050565b81511561165657808260405160200161163e929190612693565b60405160208183030381529060405292505050919050565b61165f84611d0c565b949350505050565b6008546001600160a01b031633146116c15760405162461bcd60e51b815260206004820181905260248201527f4f776e61626c653a2063616c6c6572206973206e6f7420746865206f776e6572604482015260640161065d565b6001600160a01b03811661173d5760405162461bcd60e51b815260206004820152602660248201527f4f776e61626c653a206e6577206f776e657220697320746865207a65726f206160448201527f6464726573730000000000000000000000000000000000000000000000000000606482015260840161065d565b61113c81611b51565b6000818152600460205260409020805473ffffffffffffffffffffffffffffffffffffffff19166001600160a01b038416908117909155819061178882611220565b6001600160a01b03167f8c5be1e5ebec7d5bd14f71427d1e84f3dd0314c0f7b2291e5b200ac8c7c3b92560405160405180910390a45050565b61121c828260405180602001604052806000815250611df5565b6000828152600260205260409020546001600160a01b03166118655760405162461bcd60e51b815260206004820152602e60248201527f45524337323155524953746f726167653a2055524920736574206f66206e6f6e60448201527f6578697374656e7420746f6b656e000000000000000000000000000000000000606482015260840161065d565b600082815260066020908152604090912082516107af9284019061224c565b6000818152600260205260408120546001600160a01b03166118fd5760405162461bcd60e51b815260206004820152602c60248201527f4552433732313a206f70657261746f7220717565727920666f72206e6f6e657860448201526b34b9ba32b73a103a37b5b2b760a11b606482015260840161065d565b600061190883611220565b9050806001600160a01b0316846001600160a01b031614806119435750836001600160a01b0316611938846105e8565b6001600160a01b0316145b8061165f57506001600160a01b0380821660009081526005602090815260408083209388168352929052205460ff1661165f565b826001600160a01b031661198a82611220565b6001600160a01b031614611a065760405162461bcd60e51b815260206004820152602560248201527f4552433732313a207472616e736665722066726f6d20696e636f72726563742060448201527f6f776e6572000000000000000000000000000000000000000000000000000000606482015260840161065d565b6001600160a01b038216611a815760405162461bcd60e51b8152602060048201526024808201527f4552433732313a207472616e7366657220746f20746865207a65726f2061646460448201527f7265737300000000000000000000000000000000000000000000000000000000606482015260840161065d565b611a8c600082611746565b6001600160a01b0383166000908152600360205260408120805460019290611ab5908490612774565b90915550506001600160a01b0382166000908152600360205260408120805460019290611ae390849061278b565b9091555050600081815260026020526040808220805473ffffffffffffffffffffffffffffffffffffffff19166001600160a01b0386811691821790925591518493918716917fddf252ad1be2c89b69c2b068fc378daa952ba7f163c4a11628f55a4df523b3ef91a4505050565b600880546001600160a01b0383811673ffffffffffffffffffffffffffffffffffffffff19831681179093556040519116919082907f8be0079c531659141344cd1fd0a4f28419497f9722a3daafe3b4186f6b6457e090600090a35050565b816001600160a01b0316836001600160a01b03161415611c125760405162461bcd60e51b815260206004820152601960248201527f4552433732313a20617070726f766520746f2063616c6c657200000000000000604482015260640161065d565b6001600160a01b03838116600081815260056020908152604080832094871680845294825291829020805460ff191686151590811790915591519182527f17307eab39ab6107e8899845ad3d59bd9653f200f220920489ca2b5937696c31910160405180910390a3505050565b611c8a848484611977565b611c9684848484611e73565b6114db5760405162461bcd60e51b815260206004820152603260248201527f4552433732313a207472616e7366657220746f206e6f6e20455243373231526560448201527131b2b4bb32b91034b6b83632b6b2b73a32b960711b606482015260840161065d565b6060600980546105659061263c565b6000818152600260205260409020546060906001600160a01b0316611d995760405162461bcd60e51b815260206004820152602f60248201527f4552433732314d657461646174613a2055524920717565727920666f72206e6f60448201527f6e6578697374656e7420746f6b656e0000000000000000000000000000000000606482015260840161065d565b6000611da3611cfd565b90506000815111611dc35760405180602001604052806000815250611dee565b80611dcd84611fcb565b604051602001611dde929190612693565b6040516020818303038152906040525b9392505050565b611dff83836120fd565b611e0c6000848484611e73565b6107af5760405162461bcd60e51b815260206004820152603260248201527f4552433732313a207472616e7366657220746f206e6f6e20455243373231526560448201527131b2b4bb32b91034b6b83632b6b2b73a32b960711b606482015260840161065d565b60006001600160a01b0384163b15611fc057604051630a85bd0160e11b81526001600160a01b0385169063150b7a0290611eb79033908990889088906004016127a3565b602060405180830381600087803b158015611ed157600080fd5b505af1925050508015611f01575060408051601f3d908101601f19168201909252611efe918101906127df565b60015b611fa6573d808015611f2f576040519150601f19603f3d011682016040523d82523d6000602084013e611f34565b606091505b508051611f9e5760405162461bcd60e51b815260206004820152603260248201527f4552433732313a207472616e7366657220746f206e6f6e20455243373231526560448201527131b2b4bb32b91034b6b83632b6b2b73a32b960711b606482015260840161065d565b805181602001fd5b6001600160e01b031916630a85bd0160e11b14905061165f565b506001949350505050565b60608161200b57505060408051808201909152600181527f3000000000000000000000000000000000000000000000000000000000000000602082015290565b8160005b8115612035578061201f816127fc565b915061202e9050600a8361282d565b915061200f565b60008167ffffffffffffffff81111561205057612050612461565b6040519080825280601f01601f19166020018201604052801561207a576020820181803683370190505b5090505b841561165f5761208f600183612774565b915061209c600a86612841565b6120a790603061278b565b60f81b8183815181106120bc576120bc612855565b60200101907effffffffffffffffffffffffffffffffffffffffffffffffffffffffffffff1916908160001a9053506120f6600a8661282d565b945061207e565b6001600160a01b0382166121535760405162461bcd60e51b815260206004820181905260248201527f4552433732313a206d696e7420746f20746865207a65726f2061646472657373604482015260640161065d565b6000818152600260205260409020546001600160a01b0316156121b85760405162461bcd60e51b815260206004820152601c60248201527f4552433732313a20746f6b656e20616c7265616479206d696e74656400000000604482015260640161065d565b6001600160a01b03821660009081526003602052604081208054600192906121e190849061278b565b9091555050600081815260026020526040808220805473ffffffffffffffffffffffffffffffffffffffff19166001600160a01b03861690811790915590518392907fddf252ad1be2c89b69c2b068fc378daa952ba7f163c4a11628f55a4df523b3ef908290a45050565b8280546122589061263c565b90600052602060002090601f01602090048101928261227a57600085556122c0565b82601f1061229357805160ff19168380011785556122c0565b828001600101855582156122c0579182015b828111156122c05782518255916020019190600101906122a5565b506122cc9291506122d0565b5090565b5b808211156122cc57600081556001016122d1565b6001600160e01b03198116811461113c57600080fd5b60006020828403121561230d57600080fd5b8135611dee816122e5565b60005b8381101561233357818101518382015260200161231b565b838111156114db5750506000910152565b6000815180845261235c816020860160208601612318565b601f01601f19169290920160200192915050565b602081526000611dee6020830184612344565b60006020828403121561239557600080fd5b5035919050565b80356001600160a01b03811681146123b357600080fd5b919050565b600080604083850312156123cb57600080fd5b6123d48361239c565b946020939093013593505050565b60008060008060008060c087890312156123fb57600080fd5b505084359660208601359650604086013595606081013595506080810135945060a0013592509050565b60008060006060848603121561243a57600080fd5b6124438461239c565b92506124516020850161239c565b9150604084013590509250925092565b634e487b7160e01b600052604160045260246000fd5b600067ffffffffffffffff8084111561249257612492612461565b604051601f8501601f19908116603f011681019082821181831017156124ba576124ba612461565b816040528093508581528686860111156124d357600080fd5b858560208301376000602087830101525050509392505050565b6000602082840312156124ff57600080fd5b813567ffffffffffffffff81111561251657600080fd5b8201601f8101841361252757600080fd5b61165f84823560208401612477565b60006020828403121561254857600080fd5b611dee8261239c565b6000806040838503121561256457600080fd5b61256d8361239c565b91506020830135801515811461258257600080fd5b809150509250929050565b600080600080608085870312156125a357600080fd5b6125ac8561239c565b93506125ba6020860161239c565b925060408501359150606085013567ffffffffffffffff8111156125dd57600080fd5b8501601f810187136125ee57600080fd5b6125fd87823560208401612477565b91505092959194509250565b6000806040838503121561261c57600080fd5b6126258361239c565b91506126336020840161239c565b90509250929050565b600181811c9082168061265057607f821691505b6020821081141561267157634e487b7160e01b600052602260045260246000fd5b50919050565b60008251612689818460208701612318565b9190910192915050565b600083516126a5818460208801612318565b8351908301906126b9818360208801612318565b01949350505050565b600080835481600182811c9150808316806126de57607f831692505b60208084108214156126fe57634e487b7160e01b86526022600452602486fd5b818015612712576001811461272357612750565b60ff19861689528489019650612750565b60008a81526020902060005b868110156127485781548b82015290850190830161272f565b505084890196505b509498975050505050505050565b634e487b7160e01b600052601160045260246000fd5b6000828210156127865761278661275e565b500390565b6000821982111561279e5761279e61275e565b500190565b60006001600160a01b038087168352808616602084015250836040830152608060608301526127d56080830184612344565b9695505050505050565b6000602082840312156127f157600080fd5b8151611dee816122e5565b60006000198214156128105761281061275e565b5060010190565b634e487b7160e01b600052601260045260246000fd5b60008261283c5761283c612817565b500490565b60008261285057612850612817565b500690565b634e487b7160e01b600052603260045260246000fdfea2646970667358221220786f2c7495d3094aab8bf00c1ad0b818357fc2acdd399c775924362253543bcb64736f6c63430008090033697066733a2f2f516d5a6943555843797462626e71437a4a41756a584c78655153374d6b4539544a4b79596256364c6a53696e4e342f",
  "linkReferences": {},
  "deployedLinkReferences": {}
}