{
  "_format": "hh-sol-artifact-1",
  "contractName": "PixelDevsUkraineDonation",
  "sourceName": "contracts/PixelDevsUkraineDonation.sol",
  "abi": [
    {
      "inputs": [],
      "stateMutability": "nonpayable",
      "type": "constructor"
    },
    {
      "anonymous": false,
      "inputs": [
        {
          "indexed": true,
          "internalType": "address",
          "name": "owner",
          "type": "address"
        },
        {
          "indexed": true,
          "internalType": "address",
          "name": "approved",
          "type": "address"
        },
        {
          "indexed": true,
          "internalType": "uint256",
          "name": "tokenId",
          "type": "uint256"
        }
      ],
      "name": "Approval",
      "type": "event"
    },
    {
      "anonymous": false,
      "inputs": [
        {
          "indexed": true,
          "internalType": "address",
          "name": "owner",
          "type": "address"
        },
        {
          "indexed": true,
          "internalType": "address",
          "name": "operator",
          "type": "address"
        },
        {
          "indexed": false,
          "internalType": "bool",
          "name": "approved",
          "type": "bool"
        }
      ],
      "name": "ApprovalForAll",
      "type": "event"
    },
    {
      "anonymous": false,
      "inputs": [
        {
          "indexed": true,
          "internalType": "string",
          "name": "oldValue",
          "type": "string"
        },
        {
          "indexed": true,
          "internalType": "string",
          "name": "newValue",
          "type": "string"
        }
      ],
      "name": "BaseURIUpdated",
      "type": "event"
    },
    {
      "anonymous": false,
      "inputs": [
        {
          "indexed": true,
          "internalType": "bool",
          "name": "oldValue",
          "type": "bool"
        },
        {
          "indexed": true,
          "internalType": "bool",
          "name": "newValue",
          "type": "bool"
        }
      ],
      "name": "ContractStateUpdated",
      "type": "event"
    },
    {
      "anonymous": false,
      "inputs": [
        {
          "indexed": true,
          "internalType": "address",
          "name": "minter",
          "type": "address"
        },
        {
          "indexed": true,
          "internalType": "uint256",
          "name": "tokenId",
          "type": "uint256"
        },
        {
          "indexed": true,
          "internalType": "string",
          "name": "tier",
          "type": "string"
        }
      ],
      "name": "LogTokenMinted",
      "type": "event"
    },
    {
      "anonymous": false,
      "inputs": [
        {
          "indexed": true,
          "internalType": "bytes32",
          "name": "role",
          "type": "bytes32"
        },
        {
          "indexed": true,
          "internalType": "bytes32",
          "name": "previousAdminRole",
          "type": "bytes32"
        },
        {
          "indexed": true,
          "internalType": "bytes32",
          "name": "newAdminRole",
          "type": "bytes32"
        }
      ],
      "name": "RoleAdminChanged",
      "type": "event"
    },
    {
      "anonymous": false,
      "inputs": [
        {
          "indexed": true,
          "internalType": "bytes32",
          "name": "role",
          "type": "bytes32"
        },
        {
          "indexed": true,
          "internalType": "address",
          "name": "account",
          "type": "address"
        },
        {
          "indexed": true,
          "internalType": "address",
          "name": "sender",
          "type": "address"
        }
      ],
      "name": "RoleGranted",
      "type": "event"
    },
    {
      "anonymous": false,
      "inputs": [
        {
          "indexed": true,
          "internalType": "bytes32",
          "name": "role",
          "type": "bytes32"
        },
        {
          "indexed": true,
          "internalType": "address",
          "name": "account",
          "type": "address"
        },
        {
          "indexed": true,
          "internalType": "address",
          "name": "sender",
          "type": "address"
        }
      ],
      "name": "RoleRevoked",
      "type": "event"
    },
    {
      "anonymous": false,
      "inputs": [
        {
          "indexed": false,
          "internalType": "address",
          "name": "oldRecipient",
          "type": "address"
        },
        {
          "indexed": false,
          "internalType": "uint256",
          "name": "oldValue",
          "type": "uint256"
        },
        {
          "indexed": false,
          "internalType": "address",
          "name": "newRecipient",
          "type": "address"
        },
        {
          "indexed": false,
          "internalType": "uint256",
          "name": "newValue",
          "type": "uint256"
        }
      ],
      "name": "RoyaltyUpdated",
      "type": "event"
    },
    {
      "anonymous": false,
      "inputs": [
        {
          "indexed": true,
          "internalType": "string",
          "name": "tier",
          "type": "string"
        },
        {
          "indexed": true,
          "internalType": "uint256",
          "name": "oldValue",
          "type": "uint256"
        },
        {
          "indexed": true,
          "internalType": "uint256",
          "name": "newValue",
          "type": "uint256"
        }
      ],
      "name": "TierPricingUpdated",
      "type": "event"
    },
    {
      "anonymous": false,
      "inputs": [
        {
          "indexed": true,
          "internalType": "address",
          "name": "from",
          "type": "address"
        },
        {
          "indexed": true,
          "internalType": "address",
          "name": "to",
          "type": "address"
        },
        {
          "indexed": true,
          "internalType": "uint256",
          "name": "tokenId",
          "type": "uint256"
        }
      ],
      "name": "Transfer",
      "type": "event"
    },
    {
      "anonymous": false,
      "inputs": [
        {
          "indexed": true,
          "internalType": "address",
          "name": "oldValue",
          "type": "address"
        },
        {
          "indexed": true,
          "internalType": "address",
          "name": "newValue",
          "type": "address"
        }
      ],
      "name": "WithdrawWalletUpdated",
      "type": "event"
    },
    {
      "inputs": [],
      "name": "DEFAULT_ADMIN_ROLE",
      "outputs": [
        {
          "internalType": "bytes32",
          "name": "",
          "type": "bytes32"
        }
      ],
      "stateMutability": "view",
      "type": "function"
    },
    {
      "inputs": [],
      "name": "WITHDRAW_ROLE",
      "outputs": [
        {
          "internalType": "bytes32",
          "name": "",
          "type": "bytes32"
        }
      ],
      "stateMutability": "view",
      "type": "function"
    },
    {
      "inputs": [
        {
          "internalType": "address",
          "name": "to",
          "type": "address"
        },
        {
          "internalType": "uint256",
          "name": "tokenId",
          "type": "uint256"
        }
      ],
      "name": "approve",
      "outputs": [],
      "stateMutability": "nonpayable",
      "type": "function"
    },
    {
      "inputs": [
        {
          "internalType": "address",
          "name": "owner",
          "type": "address"
        }
      ],
      "name": "balanceOf",
      "outputs": [
        {
          "internalType": "uint256",
          "name": "",
          "type": "uint256"
        }
      ],
      "stateMutability": "view",
      "type": "function"
    },
    {
      "inputs": [],
      "name": "baseURI",
      "outputs": [
        {
          "internalType": "string",
          "name": "",
          "type": "string"
        }
      ],
      "stateMutability": "view",
      "type": "function"
    },
    {
      "inputs": [],
      "name": "contractActive",
      "outputs": [
        {
          "internalType": "bool",
          "name": "",
          "type": "bool"
        }
      ],
      "stateMutability": "view",
      "type": "function"
    },
    {
      "inputs": [
        {
          "internalType": "uint256",
          "name": "tokenId",
          "type": "uint256"
        }
      ],
      "name": "getApproved",
      "outputs": [
        {
          "internalType": "address",
          "name": "",
          "type": "address"
        }
      ],
      "stateMutability": "view",
      "type": "function"
    },
    {
      "inputs": [
        {
          "internalType": "bytes32",
          "name": "role",
          "type": "bytes32"
        }
      ],
      "name": "getRoleAdmin",
      "outputs": [
        {
          "internalType": "bytes32",
          "name": "",
          "type": "bytes32"
        }
      ],
      "stateMutability": "view",
      "type": "function"
    },
    {
      "inputs": [
        {
          "internalType": "bytes32",
          "name": "role",
          "type": "bytes32"
        },
        {
          "internalType": "address",
          "name": "account",
          "type": "address"
        }
      ],
      "name": "grantRole",
      "outputs": [],
      "stateMutability": "nonpayable",
      "type": "function"
    },
    {
      "inputs": [
        {
          "internalType": "bytes32",
          "name": "role",
          "type": "bytes32"
        },
        {
          "internalType": "address",
          "name": "account",
          "type": "address"
        }
      ],
      "name": "hasRole",
      "outputs": [
        {
          "internalType": "bool",
          "name": "",
          "type": "bool"
        }
      ],
      "stateMutability": "view",
      "type": "function"
    },
    {
      "inputs": [
        {
          "internalType": "address",
          "name": "owner",
          "type": "address"
        },
        {
          "internalType": "address",
          "name": "operator",
          "type": "address"
        }
      ],
      "name": "isApprovedForAll",
      "outputs": [
        {
          "internalType": "bool",
          "name": "",
          "type": "bool"
        }
      ],
      "stateMutability": "view",
      "type": "function"
    },
    {
      "inputs": [],
      "name": "mint",
      "outputs": [],
      "stateMutability": "payable",
      "type": "function"
    },
    {
      "inputs": [],
      "name": "name",
      "outputs": [
        {
          "internalType": "string",
          "name": "",
          "type": "string"
        }
      ],
      "stateMutability": "view",
      "type": "function"
    },
    {
      "inputs": [
        {
          "internalType": "uint256",
          "name": "tokenId",
          "type": "uint256"
        }
      ],
      "name": "ownerOf",
      "outputs": [
        {
          "internalType": "address",
          "name": "",
          "type": "address"
        }
      ],
      "stateMutability": "view",
      "type": "function"
    },
    {
      "inputs": [
        {
          "internalType": "bytes32",
          "name": "role",
          "type": "bytes32"
        },
        {
          "internalType": "address",
          "name": "account",
          "type": "address"
        }
      ],
      "name": "renounceRole",
      "outputs": [],
      "stateMutability": "nonpayable",
      "type": "function"
    },
    {
      "inputs": [
        {
          "internalType": "bytes32",
          "name": "role",
          "type": "bytes32"
        },
        {
          "internalType": "address",
          "name": "account",
          "type": "address"
        }
      ],
      "name": "revokeRole",
      "outputs": [],
      "stateMutability": "nonpayable",
      "type": "function"
    },
    {
      "inputs": [
        {
          "internalType": "uint256",
          "name": "",
          "type": "uint256"
        },
        {
          "internalType": "uint256",
          "name": "value",
          "type": "uint256"
        }
      ],
      "name": "royaltyInfo",
      "outputs": [
        {
          "internalType": "address",
          "name": "receiver",
          "type": "address"
        },
        {
          "internalType": "uint256",
          "name": "royaltyAmount",
          "type": "uint256"
        }
      ],
      "stateMutability": "view",
      "type": "function"
    },
    {
      "inputs": [
        {
          "internalType": "address",
          "name": "from",
          "type": "address"
        },
        {
          "internalType": "address",
          "name": "to",
          "type": "address"
        },
        {
          "internalType": "uint256",
          "name": "tokenId",
          "type": "uint256"
        }
      ],
      "name": "safeTransferFrom",
      "outputs": [],
      "stateMutability": "nonpayable",
      "type": "function"
    },
    {
      "inputs": [
        {
          "internalType": "address",
          "name": "from",
          "type": "address"
        },
        {
          "internalType": "address",
          "name": "to",
          "type": "address"
        },
        {
          "internalType": "uint256",
          "name": "tokenId",
          "type": "uint256"
        },
        {
          "internalType": "bytes",
          "name": "_data",
          "type": "bytes"
        }
      ],
      "name": "safeTransferFrom",
      "outputs": [],
      "stateMutability": "nonpayable",
      "type": "function"
    },
    {
      "inputs": [
        {
          "internalType": "address",
          "name": "operator",
          "type": "address"
        },
        {
          "internalType": "bool",
          "name": "approved",
          "type": "bool"
        }
      ],
      "name": "setApprovalForAll",
      "outputs": [],
      "stateMutability": "nonpayable",
      "type": "function"
    },
    {
      "inputs": [
        {
          "internalType": "string",
          "name": "_newBaseURI",
          "type": "string"
        }
      ],
      "name": "setBaseURI",
      "outputs": [],
      "stateMutability": "nonpayable",
      "type": "function"
    },
    {
      "inputs": [
        {
          "internalType": "uint256",
          "name": "amount",
          "type": "uint256"
        }
      ],
      "name": "setRoyalties",
      "outputs": [],
      "stateMutability": "nonpayable",
      "type": "function"
    },
    {
      "inputs": [
        {
          "internalType": "uint256",
          "name": "steel",
          "type": "uint256"
        },
        {
          "internalType": "uint256",
          "name": "bronze",
          "type": "uint256"
        },
        {
          "internalType": "uint256",
          "name": "silver",
          "type": "uint256"
        },
        {
          "internalType": "uint256",
          "name": "gold",
          "type": "uint256"
        },
        {
          "internalType": "uint256",
          "name": "diamond",
          "type": "uint256"
        },
        {
          "internalType": "uint256",
          "name": "platinum",
          "type": "uint256"
        }
      ],
      "name": "setTierPricing",
      "outputs": [],
      "stateMutability": "nonpayable",
      "type": "function"
    },
    {
      "inputs": [
        {
          "internalType": "address",
          "name": "_withdrawWallet",
          "type": "address"
        }
      ],
      "name": "setWithdrawWallet",
      "outputs": [],
      "stateMutability": "nonpayable",
      "type": "function"
    },
    {
      "inputs": [
        {
          "internalType": "bytes4",
          "name": "interfaceId",
          "type": "bytes4"
        }
      ],
      "name": "supportsInterface",
      "outputs": [
        {
          "internalType": "bool",
          "name": "",
          "type": "bool"
        }
      ],
      "stateMutability": "view",
      "type": "function"
    },
    {
      "inputs": [],
      "name": "symbol",
      "outputs": [
        {
          "internalType": "string",
          "name": "",
          "type": "string"
        }
      ],
      "stateMutability": "view",
      "type": "function"
    },
    {
      "inputs": [
        {
          "internalType": "string",
          "name": "",
          "type": "string"
        }
      ],
      "name": "tiers",
      "outputs": [
        {
          "internalType": "uint256",
          "name": "",
          "type": "uint256"
        }
      ],
      "stateMutability": "view",
      "type": "function"
    },
    {
      "inputs": [],
      "name": "toggleContractState",
      "outputs": [],
      "stateMutability": "nonpayable",
      "type": "function"
    },
    {
      "inputs": [
        {
          "internalType": "uint256",
          "name": "tokenId",
          "type": "uint256"
        }
      ],
      "name": "tokenURI",
      "outputs": [
        {
          "internalType": "string",
          "name": "",
          "type": "string"
        }
      ],
      "stateMutability": "view",
      "type": "function"
    },
    {
      "inputs": [
        {
          "internalType": "address",
          "name": "from",
          "type": "address"
        },
        {
          "internalType": "address",
          "name": "to",
          "type": "address"
        },
        {
          "internalType": "uint256",
          "name": "tokenId",
          "type": "uint256"
        }
      ],
      "name": "transferFrom",
      "outputs": [],
      "stateMutability": "nonpayable",
      "type": "function"
    },
    {
      "inputs": [],
      "name": "withdraw",
      "outputs": [],
      "stateMutability": "nonpayable",
      "type": "function"
    },
    {
      "inputs": [],
      "name": "withdrawWallet",
      "outputs": [
        {
          "internalType": "address",
          "name": "",
          "type": "address"
        }
      ],
      "stateMutability": "view",
      "type": "function"
    }
  ],
  "bytecode": "0x60e06040526036608081815290620036c260a03980516200002991600a9160209091019062000564565b50600b805460ff19166001179055600d80546001600160a01b03191673633b7218644b83d57d90e7299039ebab19698e9c1790553480156200006a57600080fd5b50604080518082018252601881527f506978656c44657673556b7261696e65446f6e6174696f6e000000000000000060208083019182528351808501909452600e84526d50584c4445562d554b5241494e4560901b908401528151919291620000d69160009162000564565b508051620000ec90600190602084019062000564565b50506001600755506200010160003362000140565b6200012d7f5d8e12c39142ff96d79d04d15d1ba1269e4fe57bb9d26f43523628b34ba108ec3362000140565b6200013a6103e8620001e5565b620007c1565b60008281526008602090815260408083206001600160a01b038516845290915290205460ff16620001e15760008281526008602090815260408083206001600160a01b03851684529091529020805460ff19166001179055620001a03390565b6001600160a01b0316816001600160a01b0316837f2f8788117e7eff1d82e926ec794901d17c78024a50270940304540a733656f0d60405160405180910390a45b5050565b6000620001f38133620001ff565b620001e13083620002a5565b60008281526008602090815260408083206001600160a01b038516845290915290205460ff16620001e1576200024b816001600160a01b03166014620003a460201b6200178e1760201c565b620002618360206200178e620003a4821b17811c565b604051602001620002749291906200063d565b60408051601f198184030181529082905262461bcd60e51b82526200029c91600401620006b6565b60405180910390fd5b600954604080516001600160a01b038084168252600160a01b90930462ffffff16602082015291841690820152606081018290527fd4ad75825e8d1c1e74bc1b56ec2653bd9a7bee36e96f6f03c055f444b375568d9060800160405180910390a16127108111156200035a5760405162461bcd60e51b815260206004820152601a60248201527f45524332393831526f79616c746965733a20546f6f206869676800000000000060448201526064016200029c565b604080518082019091526001600160a01b0390921680835262ffffff909116602090920182905260098054600160a01b9093026001600160b81b0319909316909117919091179055565b60606000620003b583600262000701565b620003c290600262000723565b6001600160401b03811115620003dc57620003dc6200073e565b6040519080825280601f01601f19166020018201604052801562000407576020820181803683370190505b509050600360fc1b8160008151811062000425576200042562000754565b60200101906001600160f81b031916908160001a905350600f60fb1b8160018151811062000457576200045762000754565b60200101906001600160f81b031916908160001a90535060006200047d84600262000701565b6200048a90600162000723565b90505b60018111156200050c576f181899199a1a9b1b9c1cb0b131b232b360811b85600f1660108110620004c257620004c262000754565b1a60f81b828281518110620004db57620004db62000754565b60200101906001600160f81b031916908160001a90535060049490941c9362000504816200076a565b90506200048d565b5083156200055d5760405162461bcd60e51b815260206004820181905260248201527f537472696e67733a20686578206c656e67746820696e73756666696369656e7460448201526064016200029c565b9392505050565b828054620005729062000784565b90600052602060002090601f016020900481019282620005965760008555620005e1565b82601f10620005b157805160ff1916838001178555620005e1565b82800160010185558215620005e1579182015b82811115620005e1578251825591602001919060010190620005c4565b50620005ef929150620005f3565b5090565b5b80821115620005ef5760008155600101620005f4565b60005b83811015620006275781810151838201526020016200060d565b8381111562000637576000848401525b50505050565b7f416363657373436f6e74726f6c3a206163636f756e7420000000000000000000815260008351620006778160178501602088016200060a565b7001034b99036b4b9b9b4b733903937b6329607d1b6017918401918201528351620006aa8160288401602088016200060a565b01602801949350505050565b6020815260008251806020840152620006d78160408501602087016200060a565b601f01601f19169190910160400192915050565b634e487b7160e01b600052601160045260246000fd5b60008160001904831182151516156200071e576200071e620006eb565b500290565b60008219821115620007395762000739620006eb565b500190565b634e487b7160e01b600052604160045260246000fd5b634e487b7160e01b600052603260045260246000fd5b6000816200077c576200077c620006eb565b506000190190565b600181811c908216806200079957607f821691505b60208210811415620007bb57634e487b7160e01b600052602260045260246000fd5b50919050565b612ef180620007d16000396000f3fe6080604052600436106101e35760003560e01c80636352211e11610102578063a22cb46511610095578063e02023a111610064578063e02023a1146105ad578063e289fcb6146105e1578063e985e9c5146105fb578063fe551b051461064457600080fd5b8063a22cb4651461052d578063b88d4fde1461054d578063c87b56dd1461056d578063d547741f1461058d57600080fd5b806391d14854116100d157806391d148541461049d5780639373f432146104e357806395d89b4114610503578063a217fddf1461051857600080fd5b80636352211e146104285780636c0360eb1461044857806370a082311461045d57806385d178f41461047d57600080fd5b806324fde1e21161017a57806336568abe1161014957806336568abe146103b35780633ccfd60b146103d357806342842e0e146103e857806355f804b31461040857600080fd5b806324fde1e21461031f5780632a55205a146103345780632b80183f146103735780632f2ff15d1461039357600080fd5b80630cd9c9dd116101b65780630cd9c9dd146102995780631249c58b146102b957806323b872dd146102c1578063248a9ca3146102e157600080fd5b806301ffc9a7146101e857806306fdde031461021d578063081812fc1461023f578063095ea7b314610277575b600080fd5b3480156101f457600080fd5b5061020861020336600461284f565b61067c565b60405190151581526020015b60405180910390f35b34801561022957600080fd5b5061023261068d565b60405161021491906128c4565b34801561024b57600080fd5b5061025f61025a3660046128d7565b61071f565b6040516001600160a01b039091168152602001610214565b34801561028357600080fd5b5061029761029236600461290c565b6107b9565b005b3480156102a557600080fd5b506102976102b4366004612936565b6108eb565b610297610c5d565b3480156102cd57600080fd5b506102976102dc366004612979565b611024565b3480156102ed57600080fd5b506103116102fc3660046128d7565b60009081526008602052604090206001015490565b604051908152602001610214565b34801561032b57600080fd5b506102976110ab565b34801561034057600080fd5b5061035461034f3660046129b5565b611101565b604080516001600160a01b039093168352602083019190915201610214565b34801561037f57600080fd5b5061029761038e3660046128d7565b611156565b34801561039f57600080fd5b506102976103ae3660046129d7565b611170565b3480156103bf57600080fd5b506102976103ce3660046129d7565b611196565b3480156103df57600080fd5b5061029761121e565b3480156103f457600080fd5b50610297610403366004612979565b611282565b34801561041457600080fd5b50610297610423366004612a8f565b61129d565b34801561043457600080fd5b5061025f6104433660046128d7565b611311565b34801561045457600080fd5b5061023261139c565b34801561046957600080fd5b50610311610478366004612ad8565b61142a565b34801561048957600080fd5b50600d5461025f906001600160a01b031681565b3480156104a957600080fd5b506102086104b83660046129d7565b60009182526008602090815260408084206001600160a01b0393909316845291905290205460ff1690565b3480156104ef57600080fd5b506102976104fe366004612ad8565b6114c4565b34801561050f57600080fd5b5061023261153a565b34801561052457600080fd5b50610311600081565b34801561053957600080fd5b50610297610548366004612af3565b611549565b34801561055957600080fd5b50610297610568366004612b2f565b611554565b34801561057957600080fd5b506102326105883660046128d7565b6115e2565b34801561059957600080fd5b506102976105a83660046129d7565b611768565b3480156105b957600080fd5b506103117f5d8e12c39142ff96d79d04d15d1ba1269e4fe57bb9d26f43523628b34ba108ec81565b3480156105ed57600080fd5b50600b546102089060ff1681565b34801561060757600080fd5b50610208610616366004612bab565b6001600160a01b03918216600090815260056020908152604080832093909416825291909152205460ff1690565b34801561065057600080fd5b5061031161065f366004612a8f565b8051602081830181018051600c8252928201919093012091525481565b60006106878261195a565b92915050565b60606000805461069c90612bd5565b80601f01602080910402602001604051908101604052809291908181526020018280546106c890612bd5565b80156107155780601f106106ea57610100808354040283529160200191610715565b820191906000526020600020905b8154815290600101906020018083116106f857829003601f168201915b5050505050905090565b6000818152600260205260408120546001600160a01b031661079d5760405162461bcd60e51b815260206004820152602c60248201527f4552433732313a20617070726f76656420717565727920666f72206e6f6e657860448201526b34b9ba32b73a103a37b5b2b760a11b60648201526084015b60405180910390fd5b506000908152600460205260409020546001600160a01b031690565b60006107c482611311565b9050806001600160a01b0316836001600160a01b0316141561084e5760405162461bcd60e51b815260206004820152602160248201527f4552433732313a20617070726f76616c20746f2063757272656e74206f776e6560448201527f72000000000000000000000000000000000000000000000000000000000000006064820152608401610794565b336001600160a01b038216148061086a575061086a8133610616565b6108dc5760405162461bcd60e51b815260206004820152603860248201527f4552433732313a20617070726f76652063616c6c6572206973206e6f74206f7760448201527f6e6572206e6f7220617070726f76656420666f7220616c6c00000000000000006064820152608401610794565b6108e68383611998565b505050565b60006108f78133611a13565b86600c60405161091290641cdd19595b60da1b815260050190565b90815260405190819003602001812054641cdd19595b60da1b825290600501604051908190038120907fc3bc9193735d04679abbad1bc82dd8317fe8623287b45e84003e66f2e4510f2090600090a485600c60405161097d906562726f6e7a6560d01b815260060190565b908152604051908190036020018120546562726f6e7a6560d01b825290600601604051908190038120907fc3bc9193735d04679abbad1bc82dd8317fe8623287b45e84003e66f2e4510f2090600090a484600c6040516109e9906539b4b63b32b960d11b815260060190565b908152604051908190036020018120546539b4b63b32b960d11b825290600601604051908190038120907fc3bc9193735d04679abbad1bc82dd8317fe8623287b45e84003e66f2e4510f2090600090a483600c604051610a53906319dbdb1960e21b815260040190565b908152604051908190036020018120546319dbdb1960e21b825290600401604051908190038120907fc3bc9193735d04679abbad1bc82dd8317fe8623287b45e84003e66f2e4510f2090600090a482600c604051610abe9066191a585b5bdb9960ca1b815260070190565b9081526040519081900360200181205466191a585b5bdb9960ca1b825290600701604051908190038120907fc3bc9193735d04679abbad1bc82dd8317fe8623287b45e84003e66f2e4510f2090600090a481600c604051610b2d9067706c6174696e756d60c01b815260080190565b9081526040519081900360200181205467706c6174696e756d60c01b825290600801604051908190038120907fc3bc9193735d04679abbad1bc82dd8317fe8623287b45e84003e66f2e4510f2090600090a486600c604051610b9a90641cdd19595b60da1b815260050190565b90815260408051918290036020018220929092556562726f6e7a6560d01b8152600c6006808301829052835192839003602690810184209a909a556539b4b63b32b960d11b835282018190528251918290039098018120969096556319dbdb1960e21b8652600486018790528051958690036024018620949094555066191a585b5bdb9960ca1b84526007840185905282519384900360270184209190915567706c6174696e756d60c01b83526008830193909352519081900360280190205550565b60026007541415610cb05760405162461bcd60e51b815260206004820152601f60248201527f5265656e7472616e637947756172643a207265656e7472616e742063616c6c006044820152606401610794565b6002600755604051641cdd19595b60da1b8152600c90600501908152602001604051809103902054341015610d735760405162461bcd60e51b815260206004820152604160248201527f506c656173652073656e6420656e6f756768204d4154494320746f206d65657460448201527f20746865206d696e696d756d207468726573686f6c64206f662061207469657260648201527f2e00000000000000000000000000000000000000000000000000000000000000608482015260a401610794565b600b5460ff16610e115760405162461bcd60e51b815260206004820152606060248201527f5468697320636f6e747261637420686173206265656e2064656163746976617460448201527f656420627920746865206f776e657220616e6420646f6573206e6f742063757260648201527f72656e746c792061636365707420616e796d6f726520646f6e6174696f6e732e608482015260a401610794565b610e1f600e80546001019055565b6000610e2a600e5490565b9050610e363382611a93565b60408051808201825260058152641cdd19595b60da1b6020820152905167706c6174696e756d60c01b8152600c906008019081526020016040518091039020543410610ea15750604080518082019091526008815267706c6174696e756d60c01b6020820152610fcf565b60405166191a585b5bdb9960ca1b8152600c906007019081526020016040518091039020543410610ef05750604080518082019091526007815266191a585b5bdb9960ca1b6020820152610fcf565b6040516319dbdb1960e21b8152600c906004019081526020016040518091039020543410610f39575060408051808201909152600481526319dbdb1960e21b6020820152610fcf565b6040516539b4b63b32b960d11b8152600c906006019081526020016040518091039020543410610f86575060408051808201909152600681526539b4b63b32b960d11b6020820152610fcf565b6040516562726f6e7a6560d01b8152600c906006019081526020016040518091039020543410610fcf575060408051808201909152600681526562726f6e7a6560d01b60208201525b80604051610fdd9190612c10565b60405190819003812090839033907fd24e8d35e8d0bc0851b0d6249b090ae8ba18fe7cbff4df2e7dc4d4d591f59f0a90600090a461101b8282611aad565b50506001600755565b61102e3382611b56565b6110a05760405162461bcd60e51b815260206004820152603160248201527f4552433732313a207472616e736665722063616c6c6572206973206e6f74206f60448201527f776e6572206e6f7220617070726f7665640000000000000000000000000000006064820152608401610794565b6108e6838383611c49565b60006110b78133611a13565b600b5460405160ff909116158015917fe3048a2fbdb5d0325f217d8d1345240961758ee1c8bc3d78f69edacaca8d873190600090a350600b805460ff19811660ff90911615179055565b604080518082019091526009546001600160a01b038116808352600160a01b90910462ffffff16602083018190529091600091612710906111429086612c42565b61114c9190612c77565b9150509250929050565b60006111628133611a13565b61116c3083611e23565b5050565b60008281526008602052604090206001015461118c8133611a13565b6108e68383611f38565b6001600160a01b03811633146112145760405162461bcd60e51b815260206004820152602f60248201527f416363657373436f6e74726f6c3a2063616e206f6e6c792072656e6f756e636560448201527f20726f6c657320666f722073656c6600000000000000000000000000000000006064820152608401610794565b61116c8282611fda565b7f5d8e12c39142ff96d79d04d15d1ba1269e4fe57bb9d26f43523628b34ba108ec6112498133611a13565b600d546040516001600160a01b03909116904780156108fc02916000818181858888f1935050505015801561116c573d6000803e3d6000fd5b6108e683838360405180602001604052806000815250611554565b60006112a98133611a13565b816040516112b79190612c10565b6040518091039020600a6040516112ce9190612c8b565b604051908190038120907f309b29ded109b9e28fb9885757b3e0096eb75c51d23aa4635d68bcd569f6adc190600090a381516108e690600a90602085019061279d565b6000818152600260205260408120546001600160a01b0316806106875760405162461bcd60e51b815260206004820152602960248201527f4552433732313a206f776e657220717565727920666f72206e6f6e657869737460448201527f656e7420746f6b656e00000000000000000000000000000000000000000000006064820152608401610794565b600a80546113a990612bd5565b80601f01602080910402602001604051908101604052809291908181526020018280546113d590612bd5565b80156114225780601f106113f757610100808354040283529160200191611422565b820191906000526020600020905b81548152906001019060200180831161140557829003601f168201915b505050505081565b60006001600160a01b0382166114a85760405162461bcd60e51b815260206004820152602a60248201527f4552433732313a2062616c616e636520717565727920666f7220746865207a6560448201527f726f2061646472657373000000000000000000000000000000000000000000006064820152608401610794565b506001600160a01b031660009081526003602052604090205490565b60006114d08133611a13565b600d546040516001600160a01b038085169216907f1a1281546ab2ddcd5ce0feb2e11fbe991326fa5936d8b8444506706dd3a6fa7f90600090a350600d805473ffffffffffffffffffffffffffffffffffffffff19166001600160a01b0392909216919091179055565b60606001805461069c90612bd5565b61116c33838361205d565b61155e3383611b56565b6115d05760405162461bcd60e51b815260206004820152603160248201527f4552433732313a207472616e736665722063616c6c6572206973206e6f74206f60448201527f776e6572206e6f7220617070726f7665640000000000000000000000000000006064820152608401610794565b6115dc8484848461212c565b50505050565b6000818152600260205260409020546060906001600160a01b031661166f5760405162461bcd60e51b815260206004820152603160248201527f45524337323155524953746f726167653a2055524920717565727920666f722060448201527f6e6f6e6578697374656e7420746f6b656e0000000000000000000000000000006064820152608401610794565b6000828152600660205260408120805461168890612bd5565b80601f01602080910402602001604051908101604052809291908181526020018280546116b490612bd5565b80156117015780601f106116d657610100808354040283529160200191611701565b820191906000526020600020905b8154815290600101906020018083116116e457829003601f168201915b5050505050905060006117126121aa565b9050805160001415611725575092915050565b81511561175757808260405160200161173f929190612d27565b60405160208183030381529060405292505050919050565b611760846121b9565b949350505050565b6000828152600860205260409020600101546117848133611a13565b6108e68383611fda565b6060600061179d836002612c42565b6117a8906002612d56565b67ffffffffffffffff8111156117c0576117c0612a03565b6040519080825280601f01601f1916602001820160405280156117ea576020820181803683370190505b509050600360fc1b8160008151811061180557611805612d6e565b60200101906001600160f81b031916908160001a9053507f78000000000000000000000000000000000000000000000000000000000000008160018151811061185057611850612d6e565b60200101906001600160f81b031916908160001a9053506000611874846002612c42565b61187f906001612d56565b90505b6001811115611904577f303132333435363738396162636465660000000000000000000000000000000085600f16601081106118c0576118c0612d6e565b1a60f81b8282815181106118d6576118d6612d6e565b60200101906001600160f81b031916908160001a90535060049490941c936118fd81612d84565b9050611882565b5083156119535760405162461bcd60e51b815260206004820181905260248201527f537472696e67733a20686578206c656e67746820696e73756666696369656e746044820152606401610794565b9392505050565b60006001600160e01b031982167f2a55205a0000000000000000000000000000000000000000000000000000000014806106875750610687826122a1565b6000818152600460205260409020805473ffffffffffffffffffffffffffffffffffffffff19166001600160a01b03841690811790915581906119da82611311565b6001600160a01b03167f8c5be1e5ebec7d5bd14f71427d1e84f3dd0314c0f7b2291e5b200ac8c7c3b92560405160405180910390a45050565b60008281526008602090815260408083206001600160a01b038516845290915290205460ff1661116c57611a51816001600160a01b0316601461178e565b611a5c83602061178e565b604051602001611a6d929190612d9b565b60408051601f198184030181529082905262461bcd60e51b8252610794916004016128c4565b61116c8282604051806020016040528060008152506122df565b6000828152600260205260409020546001600160a01b0316611b375760405162461bcd60e51b815260206004820152602e60248201527f45524337323155524953746f726167653a2055524920736574206f66206e6f6e60448201527f6578697374656e7420746f6b656e0000000000000000000000000000000000006064820152608401610794565b600082815260066020908152604090912082516108e69284019061279d565b6000818152600260205260408120546001600160a01b0316611bcf5760405162461bcd60e51b815260206004820152602c60248201527f4552433732313a206f70657261746f7220717565727920666f72206e6f6e657860448201526b34b9ba32b73a103a37b5b2b760a11b6064820152608401610794565b6000611bda83611311565b9050806001600160a01b0316846001600160a01b03161480611c155750836001600160a01b0316611c0a8461071f565b6001600160a01b0316145b8061176057506001600160a01b0380821660009081526005602090815260408083209388168352929052205460ff16611760565b826001600160a01b0316611c5c82611311565b6001600160a01b031614611cd85760405162461bcd60e51b815260206004820152602560248201527f4552433732313a207472616e736665722066726f6d20696e636f72726563742060448201527f6f776e65720000000000000000000000000000000000000000000000000000006064820152608401610794565b6001600160a01b038216611d535760405162461bcd60e51b8152602060048201526024808201527f4552433732313a207472616e7366657220746f20746865207a65726f2061646460448201527f72657373000000000000000000000000000000000000000000000000000000006064820152608401610794565b611d5e600082611998565b6001600160a01b0383166000908152600360205260408120805460019290611d87908490612e1c565b90915550506001600160a01b0382166000908152600360205260408120805460019290611db5908490612d56565b9091555050600081815260026020526040808220805473ffffffffffffffffffffffffffffffffffffffff19166001600160a01b0386811691821790925591518493918716917fddf252ad1be2c89b69c2b068fc378daa952ba7f163c4a11628f55a4df523b3ef91a4505050565b600954604080516001600160a01b038084168252600160a01b90930462ffffff16602082015291841690820152606081018290527fd4ad75825e8d1c1e74bc1b56ec2653bd9a7bee36e96f6f03c055f444b375568d9060800160405180910390a1612710811115611ed65760405162461bcd60e51b815260206004820152601a60248201527f45524332393831526f79616c746965733a20546f6f20686967680000000000006044820152606401610794565b604080518082019091526001600160a01b0390921680835262ffffff909116602090920182905260098054600160a01b9093027fffffffffffffffffff0000000000000000000000000000000000000000000000909316909117919091179055565b60008281526008602090815260408083206001600160a01b038516845290915290205460ff1661116c5760008281526008602090815260408083206001600160a01b03851684529091529020805460ff19166001179055611f963390565b6001600160a01b0316816001600160a01b0316837f2f8788117e7eff1d82e926ec794901d17c78024a50270940304540a733656f0d60405160405180910390a45050565b60008281526008602090815260408083206001600160a01b038516845290915290205460ff161561116c5760008281526008602090815260408083206001600160a01b0385168085529252808320805460ff1916905551339285917ff6391f5c32d9c69d2a47ea670b442974b53935d1edc7fd64eb21e047a839171b9190a45050565b816001600160a01b0316836001600160a01b031614156120bf5760405162461bcd60e51b815260206004820152601960248201527f4552433732313a20617070726f766520746f2063616c6c6572000000000000006044820152606401610794565b6001600160a01b03838116600081815260056020908152604080832094871680845294825291829020805460ff191686151590811790915591519182527f17307eab39ab6107e8899845ad3d59bd9653f200f220920489ca2b5937696c31910160405180910390a3505050565b612137848484611c49565b6121438484848461235d565b6115dc5760405162461bcd60e51b815260206004820152603260248201527f4552433732313a207472616e7366657220746f206e6f6e20455243373231526560448201527131b2b4bb32b91034b6b83632b6b2b73a32b960711b6064820152608401610794565b6060600a805461069c90612bd5565b6000818152600260205260409020546060906001600160a01b03166122465760405162461bcd60e51b815260206004820152602f60248201527f4552433732314d657461646174613a2055524920717565727920666f72206e6f60448201527f6e6578697374656e7420746f6b656e00000000000000000000000000000000006064820152608401610794565b60006122506121aa565b905060008151116122705760405180602001604052806000815250611953565b8061227a846124b5565b60405160200161228b929190612d27565b6040516020818303038152906040529392505050565b60006001600160e01b031982167f7965db0b0000000000000000000000000000000000000000000000000000000014806106875750610687826125b3565b6122e9838361264e565b6122f6600084848461235d565b6108e65760405162461bcd60e51b815260206004820152603260248201527f4552433732313a207472616e7366657220746f206e6f6e20455243373231526560448201527131b2b4bb32b91034b6b83632b6b2b73a32b960711b6064820152608401610794565b60006001600160a01b0384163b156124aa57604051630a85bd0160e11b81526001600160a01b0385169063150b7a02906123a1903390899088908890600401612e33565b602060405180830381600087803b1580156123bb57600080fd5b505af19250505080156123eb575060408051601f3d908101601f191682019092526123e891810190612e6f565b60015b612490573d808015612419576040519150601f19603f3d011682016040523d82523d6000602084013e61241e565b606091505b5080516124885760405162461bcd60e51b815260206004820152603260248201527f4552433732313a207472616e7366657220746f206e6f6e20455243373231526560448201527131b2b4bb32b91034b6b83632b6b2b73a32b960711b6064820152608401610794565b805181602001fd5b6001600160e01b031916630a85bd0160e11b149050611760565b506001949350505050565b6060816124d95750506040805180820190915260018152600360fc1b602082015290565b8160005b811561250357806124ed81612e8c565b91506124fc9050600a83612c77565b91506124dd565b60008167ffffffffffffffff81111561251e5761251e612a03565b6040519080825280601f01601f191660200182016040528015612548576020820181803683370190505b5090505b84156117605761255d600183612e1c565b915061256a600a86612ea7565b612575906030612d56565b60f81b81838151811061258a5761258a612d6e565b60200101906001600160f81b031916908160001a9053506125ac600a86612c77565b945061254c565b60006001600160e01b031982167f80ac58cd00000000000000000000000000000000000000000000000000000000148061261657506001600160e01b031982167f5b5e139f00000000000000000000000000000000000000000000000000000000145b8061068757507f01ffc9a7000000000000000000000000000000000000000000000000000000006001600160e01b0319831614610687565b6001600160a01b0382166126a45760405162461bcd60e51b815260206004820181905260248201527f4552433732313a206d696e7420746f20746865207a65726f20616464726573736044820152606401610794565b6000818152600260205260409020546001600160a01b0316156127095760405162461bcd60e51b815260206004820152601c60248201527f4552433732313a20746f6b656e20616c7265616479206d696e746564000000006044820152606401610794565b6001600160a01b0382166000908152600360205260408120805460019290612732908490612d56565b9091555050600081815260026020526040808220805473ffffffffffffffffffffffffffffffffffffffff19166001600160a01b03861690811790915590518392907fddf252ad1be2c89b69c2b068fc378daa952ba7f163c4a11628f55a4df523b3ef908290a45050565b8280546127a990612bd5565b90600052602060002090601f0160209004810192826127cb5760008555612811565b82601f106127e457805160ff1916838001178555612811565b82800160010185558215612811579182015b828111156128115782518255916020019190600101906127f6565b5061281d929150612821565b5090565b5b8082111561281d5760008155600101612822565b6001600160e01b03198116811461284c57600080fd5b50565b60006020828403121561286157600080fd5b813561195381612836565b60005b8381101561288757818101518382015260200161286f565b838111156115dc5750506000910152565b600081518084526128b081602086016020860161286c565b601f01601f19169290920160200192915050565b6020815260006119536020830184612898565b6000602082840312156128e957600080fd5b5035919050565b80356001600160a01b038116811461290757600080fd5b919050565b6000806040838503121561291f57600080fd5b612928836128f0565b946020939093013593505050565b60008060008060008060c0878903121561294f57600080fd5b505084359660208601359650604086013595606081013595506080810135945060a0013592509050565b60008060006060848603121561298e57600080fd5b612997846128f0565b92506129a5602085016128f0565b9150604084013590509250925092565b600080604083850312156129c857600080fd5b50508035926020909101359150565b600080604083850312156129ea57600080fd5b823591506129fa602084016128f0565b90509250929050565b634e487b7160e01b600052604160045260246000fd5b600067ffffffffffffffff80841115612a3457612a34612a03565b604051601f8501601f19908116603f01168101908282118183101715612a5c57612a5c612a03565b81604052809350858152868686011115612a7557600080fd5b858560208301376000602087830101525050509392505050565b600060208284031215612aa157600080fd5b813567ffffffffffffffff811115612ab857600080fd5b8201601f81018413612ac957600080fd5b61176084823560208401612a19565b600060208284031215612aea57600080fd5b611953826128f0565b60008060408385031215612b0657600080fd5b612b0f836128f0565b915060208301358015158114612b2457600080fd5b809150509250929050565b60008060008060808587031215612b4557600080fd5b612b4e856128f0565b9350612b5c602086016128f0565b925060408501359150606085013567ffffffffffffffff811115612b7f57600080fd5b8501601f81018713612b9057600080fd5b612b9f87823560208401612a19565b91505092959194509250565b60008060408385031215612bbe57600080fd5b612bc7836128f0565b91506129fa602084016128f0565b600181811c90821680612be957607f821691505b60208210811415612c0a57634e487b7160e01b600052602260045260246000fd5b50919050565b60008251612c2281846020870161286c565b9190910192915050565b634e487b7160e01b600052601160045260246000fd5b6000816000190483118215151615612c5c57612c5c612c2c565b500290565b634e487b7160e01b600052601260045260246000fd5b600082612c8657612c86612c61565b500490565b600080835481600182811c915080831680612ca757607f831692505b6020808410821415612cc757634e487b7160e01b86526022600452602486fd5b818015612cdb5760018114612cec57612d19565b60ff19861689528489019650612d19565b60008a81526020902060005b86811015612d115781548b820152908501908301612cf8565b505084890196505b509498975050505050505050565b60008351612d3981846020880161286c565b835190830190612d4d81836020880161286c565b01949350505050565b60008219821115612d6957612d69612c2c565b500190565b634e487b7160e01b600052603260045260246000fd5b600081612d9357612d93612c2c565b506000190190565b7f416363657373436f6e74726f6c3a206163636f756e7420000000000000000000815260008351612dd381601785016020880161286c565b7f206973206d697373696e6720726f6c65200000000000000000000000000000006017918401918201528351612e1081602884016020880161286c565b01602801949350505050565b600082821015612e2e57612e2e612c2c565b500390565b60006001600160a01b03808716835280861660208401525083604083015260806060830152612e656080830184612898565b9695505050505050565b600060208284031215612e8157600080fd5b815161195381612836565b6000600019821415612ea057612ea0612c2c565b5060010190565b600082612eb657612eb6612c61565b50069056fea264697066735822122085513dd2f3a38ddff0f5b0b1f5f6c3caf4636a508f7896f22e5f5b14da92612364736f6c63430008090033697066733a2f2f516d5a6943555843797462626e71437a4a41756a584c78655153374d6b4539544a4b79596256364c6a53696e4e342f",
  "linkReferences": {},
  "deployedLinkReferences": {}
}