{
  "_format": "hh-sol-artifact-1",
  "contractName": "PixelDevsUkraineDonation",
  "sourceName": "contracts/PixelDevsUkraineDonation.sol",
  "abi": [
    {
      "inputs": [],
      "stateMutability": "nonpayable",
      "type": "constructor"
    },
    {
      "anonymous": false,
      "inputs": [
        {
          "indexed": true,
          "internalType": "address",
          "name": "owner",
          "type": "address"
        },
        {
          "indexed": true,
          "internalType": "address",
          "name": "approved",
          "type": "address"
        },
        {
          "indexed": true,
          "internalType": "uint256",
          "name": "tokenId",
          "type": "uint256"
        }
      ],
      "name": "Approval",
      "type": "event"
    },
    {
      "anonymous": false,
      "inputs": [
        {
          "indexed": true,
          "internalType": "address",
          "name": "owner",
          "type": "address"
        },
        {
          "indexed": true,
          "internalType": "address",
          "name": "operator",
          "type": "address"
        },
        {
          "indexed": false,
          "internalType": "bool",
          "name": "approved",
          "type": "bool"
        }
      ],
      "name": "ApprovalForAll",
      "type": "event"
    },
    {
      "anonymous": false,
      "inputs": [
        {
          "indexed": true,
          "internalType": "string",
          "name": "oldValue",
          "type": "string"
        },
        {
          "indexed": true,
          "internalType": "string",
          "name": "newValue",
          "type": "string"
        }
      ],
      "name": "BaseURIUpdated",
      "type": "event"
    },
    {
      "anonymous": false,
      "inputs": [
        {
          "indexed": true,
          "internalType": "address",
          "name": "minter",
          "type": "address"
        },
        {
          "indexed": true,
          "internalType": "uint256",
          "name": "tokenId",
          "type": "uint256"
        },
        {
          "indexed": true,
          "internalType": "string",
          "name": "donationType",
          "type": "string"
        }
      ],
      "name": "LogTokenMinted",
      "type": "event"
    },
    {
      "anonymous": false,
      "inputs": [
        {
          "indexed": true,
          "internalType": "uint256",
          "name": "oldValue",
          "type": "uint256"
        },
        {
          "indexed": true,
          "internalType": "uint256",
          "name": "newValue",
          "type": "uint256"
        }
      ],
      "name": "MinimumMintPriceUpdated",
      "type": "event"
    },
    {
      "anonymous": false,
      "inputs": [
        {
          "indexed": true,
          "internalType": "address",
          "name": "previousOwner",
          "type": "address"
        },
        {
          "indexed": true,
          "internalType": "address",
          "name": "newOwner",
          "type": "address"
        }
      ],
      "name": "OwnershipTransferred",
      "type": "event"
    },
    {
      "anonymous": false,
      "inputs": [
        {
          "indexed": true,
          "internalType": "address",
          "name": "from",
          "type": "address"
        },
        {
          "indexed": true,
          "internalType": "address",
          "name": "to",
          "type": "address"
        },
        {
          "indexed": true,
          "internalType": "uint256",
          "name": "tokenId",
          "type": "uint256"
        }
      ],
      "name": "Transfer",
      "type": "event"
    },
    {
      "inputs": [
        {
          "internalType": "address",
          "name": "to",
          "type": "address"
        },
        {
          "internalType": "uint256",
          "name": "tokenId",
          "type": "uint256"
        }
      ],
      "name": "approve",
      "outputs": [],
      "stateMutability": "nonpayable",
      "type": "function"
    },
    {
      "inputs": [
        {
          "internalType": "address",
          "name": "owner",
          "type": "address"
        }
      ],
      "name": "balanceOf",
      "outputs": [
        {
          "internalType": "uint256",
          "name": "",
          "type": "uint256"
        }
      ],
      "stateMutability": "view",
      "type": "function"
    },
    {
      "inputs": [],
      "name": "baseURI",
      "outputs": [
        {
          "internalType": "string",
          "name": "",
          "type": "string"
        }
      ],
      "stateMutability": "view",
      "type": "function"
    },
    {
      "inputs": [],
      "name": "donationType",
      "outputs": [
        {
          "internalType": "enum PixelDevsUkraineDonation.DonationType",
          "name": "",
          "type": "uint8"
        }
      ],
      "stateMutability": "view",
      "type": "function"
    },
    {
      "inputs": [
        {
          "internalType": "uint256",
          "name": "tokenId",
          "type": "uint256"
        }
      ],
      "name": "getApproved",
      "outputs": [
        {
          "internalType": "address",
          "name": "",
          "type": "address"
        }
      ],
      "stateMutability": "view",
      "type": "function"
    },
    {
      "inputs": [
        {
          "internalType": "address",
          "name": "owner",
          "type": "address"
        },
        {
          "internalType": "address",
          "name": "operator",
          "type": "address"
        }
      ],
      "name": "isApprovedForAll",
      "outputs": [
        {
          "internalType": "bool",
          "name": "",
          "type": "bool"
        }
      ],
      "stateMutability": "view",
      "type": "function"
    },
    {
      "inputs": [],
      "name": "minimumMintPrice",
      "outputs": [
        {
          "internalType": "uint256",
          "name": "",
          "type": "uint256"
        }
      ],
      "stateMutability": "view",
      "type": "function"
    },
    {
      "inputs": [],
      "name": "mint",
      "outputs": [
        {
          "internalType": "uint256",
          "name": "",
          "type": "uint256"
        }
      ],
      "stateMutability": "payable",
      "type": "function"
    },
    {
      "inputs": [],
      "name": "name",
      "outputs": [
        {
          "internalType": "string",
          "name": "",
          "type": "string"
        }
      ],
      "stateMutability": "view",
      "type": "function"
    },
    {
      "inputs": [],
      "name": "owner",
      "outputs": [
        {
          "internalType": "address",
          "name": "",
          "type": "address"
        }
      ],
      "stateMutability": "view",
      "type": "function"
    },
    {
      "inputs": [
        {
          "internalType": "uint256",
          "name": "tokenId",
          "type": "uint256"
        }
      ],
      "name": "ownerOf",
      "outputs": [
        {
          "internalType": "address",
          "name": "",
          "type": "address"
        }
      ],
      "stateMutability": "view",
      "type": "function"
    },
    {
      "inputs": [],
      "name": "renounceOwnership",
      "outputs": [],
      "stateMutability": "nonpayable",
      "type": "function"
    },
    {
      "inputs": [
        {
          "internalType": "address",
          "name": "from",
          "type": "address"
        },
        {
          "internalType": "address",
          "name": "to",
          "type": "address"
        },
        {
          "internalType": "uint256",
          "name": "tokenId",
          "type": "uint256"
        }
      ],
      "name": "safeTransferFrom",
      "outputs": [],
      "stateMutability": "nonpayable",
      "type": "function"
    },
    {
      "inputs": [
        {
          "internalType": "address",
          "name": "from",
          "type": "address"
        },
        {
          "internalType": "address",
          "name": "to",
          "type": "address"
        },
        {
          "internalType": "uint256",
          "name": "tokenId",
          "type": "uint256"
        },
        {
          "internalType": "bytes",
          "name": "_data",
          "type": "bytes"
        }
      ],
      "name": "safeTransferFrom",
      "outputs": [],
      "stateMutability": "nonpayable",
      "type": "function"
    },
    {
      "inputs": [
        {
          "internalType": "address",
          "name": "operator",
          "type": "address"
        },
        {
          "internalType": "bool",
          "name": "approved",
          "type": "bool"
        }
      ],
      "name": "setApprovalForAll",
      "outputs": [],
      "stateMutability": "nonpayable",
      "type": "function"
    },
    {
      "inputs": [
        {
          "internalType": "string",
          "name": "_newBaseURI",
          "type": "string"
        }
      ],
      "name": "setBaseURI",
      "outputs": [],
      "stateMutability": "nonpayable",
      "type": "function"
    },
    {
      "inputs": [
        {
          "internalType": "uint256",
          "name": "_newPrice",
          "type": "uint256"
        }
      ],
      "name": "setMinimumMintPrice",
      "outputs": [],
      "stateMutability": "nonpayable",
      "type": "function"
    },
    {
      "inputs": [
        {
          "internalType": "bytes4",
          "name": "interfaceId",
          "type": "bytes4"
        }
      ],
      "name": "supportsInterface",
      "outputs": [
        {
          "internalType": "bool",
          "name": "",
          "type": "bool"
        }
      ],
      "stateMutability": "view",
      "type": "function"
    },
    {
      "inputs": [],
      "name": "symbol",
      "outputs": [
        {
          "internalType": "string",
          "name": "",
          "type": "string"
        }
      ],
      "stateMutability": "view",
      "type": "function"
    },
    {
      "inputs": [
        {
          "internalType": "uint256",
          "name": "index",
          "type": "uint256"
        }
      ],
      "name": "tokenByIndex",
      "outputs": [
        {
          "internalType": "uint256",
          "name": "",
          "type": "uint256"
        }
      ],
      "stateMutability": "view",
      "type": "function"
    },
    {
      "inputs": [
        {
          "internalType": "address",
          "name": "owner",
          "type": "address"
        },
        {
          "internalType": "uint256",
          "name": "index",
          "type": "uint256"
        }
      ],
      "name": "tokenOfOwnerByIndex",
      "outputs": [
        {
          "internalType": "uint256",
          "name": "",
          "type": "uint256"
        }
      ],
      "stateMutability": "view",
      "type": "function"
    },
    {
      "inputs": [
        {
          "internalType": "uint256",
          "name": "tokenID",
          "type": "uint256"
        }
      ],
      "name": "tokenURI",
      "outputs": [
        {
          "internalType": "string",
          "name": "",
          "type": "string"
        }
      ],
      "stateMutability": "view",
      "type": "function"
    },
    {
      "inputs": [],
      "name": "totalSupply",
      "outputs": [
        {
          "internalType": "uint256",
          "name": "",
          "type": "uint256"
        }
      ],
      "stateMutability": "view",
      "type": "function"
    },
    {
      "inputs": [
        {
          "internalType": "address",
          "name": "from",
          "type": "address"
        },
        {
          "internalType": "address",
          "name": "to",
          "type": "address"
        },
        {
          "internalType": "uint256",
          "name": "tokenId",
          "type": "uint256"
        }
      ],
      "name": "transferFrom",
      "outputs": [],
      "stateMutability": "nonpayable",
      "type": "function"
    },
    {
      "inputs": [
        {
          "internalType": "address",
          "name": "newOwner",
          "type": "address"
        }
      ],
      "name": "transferOwnership",
      "outputs": [],
      "stateMutability": "nonpayable",
      "type": "function"
    },
    {
      "inputs": [],
      "name": "withdraw",
      "outputs": [],
      "stateMutability": "nonpayable",
      "type": "function"
    }
  ],
  "bytecode": "0x60c0604052600f60808190526e697066733a2f2f616263642e2e2e2f60881b60a09081526200003291600c919062000139565b5067a688906bd8b00000600d553480156200004c57600080fd5b50604080518082018252601881527f506978656c44657673556b7261696e65446f6e6174696f6e000000000000000060208083019182528351808501909452600e84526d50584c4445562d554b5241494e4560901b908401528151919291620000b89160009162000139565b508051620000ce90600190602084019062000139565b50506001600a5550620000e133620000e7565b6200021c565b600b80546001600160a01b038381166001600160a01b0319831681179093556040519116919082907f8be0079c531659141344cd1fd0a4f28419497f9722a3daafe3b4186f6b6457e090600090a35050565b8280546200014790620001df565b90600052602060002090601f0160209004810192826200016b5760008555620001b6565b82601f106200018657805160ff1916838001178555620001b6565b82800160010185558215620001b6579182015b82811115620001b657825182559160200191906001019062000199565b50620001c4929150620001c8565b5090565b5b80821115620001c45760008155600101620001c9565b600181811c90821680620001f457607f821691505b602082108114156200021657634e487b7160e01b600052602260045260246000fd5b50919050565b6125bf806200022c6000396000f3fe6080604052600436106101a15760003560e01c806355f804b3116100e15780638da5cb5b1161008a578063b88d4fde11610064578063b88d4fde14610451578063c87b56dd14610471578063e985e9c514610491578063f2fde38b146104da57600080fd5b80638da5cb5b146103fe57806395d89b411461041c578063a22cb4651461043157600080fd5b80636c0360eb116100bb5780636c0360eb146103b457806370a08231146103c9578063715018a6146103e957600080fd5b806355f804b31461034d5780636352211e1461036d57806364f0466f1461038d57600080fd5b806323b872dd1161014e5780633ccfd60b116101285780633ccfd60b146102d857806342842e0e146102ed57806344c386e41461030d5780634f6ccce71461032d57600080fd5b806323b872dd146102825780632f745c59146102a257806332d3b73b146102c257600080fd5b8063095ea7b31161017f578063095ea7b3146102355780631249c58b1461025757806318160ddd1461026d57600080fd5b806301ffc9a7146101a657806306fdde03146101db578063081812fc146101fd575b600080fd5b3480156101b257600080fd5b506101c66101c1366004612002565b6104fa565b60405190151581526020015b60405180910390f35b3480156101e757600080fd5b506101f061053e565b6040516101d2919061207e565b34801561020957600080fd5b5061021d610218366004612091565b6105d0565b6040516001600160a01b0390911681526020016101d2565b34801561024157600080fd5b506102556102503660046120c6565b61066a565b005b61025f61079c565b6040519081526020016101d2565b34801561027957600080fd5b5060085461025f565b34801561028e57600080fd5b5061025561029d3660046120f0565b6109ce565b3480156102ae57600080fd5b5061025f6102bd3660046120c6565b610a55565b3480156102ce57600080fd5b5061025f600d5481565b3480156102e457600080fd5b50610255610afd565b3480156102f957600080fd5b506102556103083660046120f0565b610b86565b34801561031957600080fd5b50610255610328366004612091565b610ba1565b34801561033957600080fd5b5061025f610348366004612091565b610c2f565b34801561035957600080fd5b506102556103683660046121b8565b610cd3565b34801561037957600080fd5b5061021d610388366004612091565b610d99565b34801561039957600080fd5b50600e546103a79060ff1681565b6040516101d29190612217565b3480156103c057600080fd5b506101f0610e24565b3480156103d557600080fd5b5061025f6103e436600461223f565b610eb2565b3480156103f557600080fd5b50610255610f4c565b34801561040a57600080fd5b50600b546001600160a01b031661021d565b34801561042857600080fd5b506101f0610fb2565b34801561043d57600080fd5b5061025561044c36600461225a565b610fc1565b34801561045d57600080fd5b5061025561046c366004612296565b610fcc565b34801561047d57600080fd5b506101f061048c366004612091565b61105a565b34801561049d57600080fd5b506101c66104ac366004612312565b6001600160a01b03918216600090815260056020908152604080832093909416825291909152205460ff1690565b3480156104e657600080fd5b506102556104f536600461223f565b611211565b60006001600160e01b031982167f780e9d630000000000000000000000000000000000000000000000000000000014806105385750610538826112f0565b92915050565b60606000805461054d90612345565b80601f016020809104026020016040519081016040528092919081815260200182805461057990612345565b80156105c65780601f1061059b576101008083540402835291602001916105c6565b820191906000526020600020905b8154815290600101906020018083116105a957829003601f168201915b5050505050905090565b6000818152600260205260408120546001600160a01b031661064e5760405162461bcd60e51b815260206004820152602c60248201527f4552433732313a20617070726f76656420717565727920666f72206e6f6e657860448201526b34b9ba32b73a103a37b5b2b760a11b60648201526084015b60405180910390fd5b506000908152600460205260409020546001600160a01b031690565b600061067582610d99565b9050806001600160a01b0316836001600160a01b031614156106ff5760405162461bcd60e51b815260206004820152602160248201527f4552433732313a20617070726f76616c20746f2063757272656e74206f776e6560448201527f72000000000000000000000000000000000000000000000000000000000000006064820152608401610645565b336001600160a01b038216148061071b575061071b81336104ac565b61078d5760405162461bcd60e51b815260206004820152603860248201527f4552433732313a20617070726f76652063616c6c6572206973206e6f74206f7760448201527f6e6572206e6f7220617070726f76656420666f7220616c6c00000000000000006064820152608401610645565b610797838361138b565b505050565b60006002600a5414156107f15760405162461bcd60e51b815260206004820152601f60248201527f5265656e7472616e637947756172643a207265656e7472616e742063616c6c006044820152606401610645565b6002600a55600d543410156108485760405162461bcd60e51b815260206004820152601560248201527f4e6f7420656e6f756768204d415449432073656e7400000000000000000000006044820152606401610645565b610856600f80546001019055565b6000610861600f5490565b905061086d3382611406565b68015af1d78b58c4000034116108d357600e805460ff191690556040516562726f6e7a6560d01b81526006015b60405190819003812090829033907fd24e8d35e8d0bc0851b0d6249b090ae8ba18fe7cbff4df2e7dc4d4d591f59f0a90600090a46109c4565b6802b5e3af16b1880000341161090757600e805460ff191660011790556040516539b4b63b32b960d11b815260060161089a565b68056bc75e2d63100000341161093957600e805460ff191660021790556040516319dbdb1960e21b815260040161089a565b681b1ae4d6e2ef500000341161096e57600e805460ff1916600317905560405166191a585b5bdb9960ca1b815260070161089a565b600e805460ff1916600417905560405167706c6174696e756d60c01b815260080160405190819003812090829033907fd24e8d35e8d0bc0851b0d6249b090ae8ba18fe7cbff4df2e7dc4d4d591f59f0a90600090a45b90506001600a5590565b6109d83382611420565b610a4a5760405162461bcd60e51b815260206004820152603160248201527f4552433732313a207472616e736665722063616c6c6572206973206e6f74206f60448201527f776e6572206e6f7220617070726f7665640000000000000000000000000000006064820152608401610645565b610797838383611517565b6000610a6083610eb2565b8210610ad45760405162461bcd60e51b815260206004820152602b60248201527f455243373231456e756d657261626c653a206f776e657220696e646578206f7560448201527f74206f6620626f756e64730000000000000000000000000000000000000000006064820152608401610645565b506001600160a01b03919091166000908152600660209081526040808320938352929052205490565b600b546001600160a01b03163314610b575760405162461bcd60e51b815260206004820181905260248201527f4f776e61626c653a2063616c6c6572206973206e6f7420746865206f776e65726044820152606401610645565b60405133904780156108fc02916000818181858888f19350505050158015610b83573d6000803e3d6000fd5b50565b61079783838360405180602001604052806000815250610fcc565b600b546001600160a01b03163314610bfb5760405162461bcd60e51b815260206004820181905260248201527f4f776e61626c653a2063616c6c6572206973206e6f7420746865206f776e65726044820152606401610645565b600d546040518291907fee7cc95a6ddbc9cbe1aac19a7f02be2c79897211112b5237b4ca3dbf0a49452990600090a3600d55565b6000610c3a60085490565b8210610cae5760405162461bcd60e51b815260206004820152602c60248201527f455243373231456e756d657261626c653a20676c6f62616c20696e646578206f60448201527f7574206f6620626f756e647300000000000000000000000000000000000000006064820152608401610645565b60088281548110610cc157610cc1612380565b90600052602060002001549050919050565b600b546001600160a01b03163314610d2d5760405162461bcd60e51b815260206004820181905260248201527f4f776e61626c653a2063616c6c6572206973206e6f7420746865206f776e65726044820152606401610645565b80604051610d3b9190612396565b6040518091039020600c604051610d52919061244b565b604051908190038120907f309b29ded109b9e28fb9885757b3e0096eb75c51d23aa4635d68bcd569f6adc190600090a38051610d9590600c906020840190611f53565b5050565b6000818152600260205260408120546001600160a01b0316806105385760405162461bcd60e51b815260206004820152602960248201527f4552433732313a206f776e657220717565727920666f72206e6f6e657869737460448201527f656e7420746f6b656e00000000000000000000000000000000000000000000006064820152608401610645565b600c8054610e3190612345565b80601f0160208091040260200160405190810160405280929190818152602001828054610e5d90612345565b8015610eaa5780601f10610e7f57610100808354040283529160200191610eaa565b820191906000526020600020905b815481529060010190602001808311610e8d57829003601f168201915b505050505081565b60006001600160a01b038216610f305760405162461bcd60e51b815260206004820152602a60248201527f4552433732313a2062616c616e636520717565727920666f7220746865207a6560448201527f726f2061646472657373000000000000000000000000000000000000000000006064820152608401610645565b506001600160a01b031660009081526003602052604090205490565b600b546001600160a01b03163314610fa65760405162461bcd60e51b815260206004820181905260248201527f4f776e61626c653a2063616c6c6572206973206e6f7420746865206f776e65726044820152606401610645565b610fb060006116fc565b565b60606001805461054d90612345565b610d9533838361175b565b610fd63383611420565b6110485760405162461bcd60e51b815260206004820152603160248201527f4552433732313a207472616e736665722063616c6c6572206973206e6f74206f60448201527f776e6572206e6f7220617070726f7665640000000000000000000000000000006064820152608401610645565b6110548484848461182a565b50505050565b60606000600e5460ff16600481111561107557611075612201565b14156110c357600c6040518060400160405280600681526020016562726f6e7a6560d01b8152506040516020016110ad929190612457565b6040516020818303038152906040529050919050565b6001600e5460ff1660048111156110dc576110dc612201565b141561111457600c6040518060400160405280600681526020016539b4b63b32b960d11b8152506040516020016110ad929190612457565b6002600e5460ff16600481111561112d5761112d612201565b141561116357600c6040518060400160405280600481526020016319dbdb1960e21b8152506040516020016110ad929190612457565b6003600e5460ff16600481111561117c5761117c612201565b14156111b557600c60405180604001604052806007815260200166191a585b5bdb9960ca1b8152506040516020016110ad929190612457565b6004600e5460ff1660048111156111ce576111ce612201565b141561120857600c60405180604001604052806008815260200167706c6174696e756d60c01b8152506040516020016110ad929190612457565b610538826118a8565b600b546001600160a01b0316331461126b5760405162461bcd60e51b815260206004820181905260248201527f4f776e61626c653a2063616c6c6572206973206e6f7420746865206f776e65726044820152606401610645565b6001600160a01b0381166112e75760405162461bcd60e51b815260206004820152602660248201527f4f776e61626c653a206e6577206f776e657220697320746865207a65726f206160448201527f64647265737300000000000000000000000000000000000000000000000000006064820152608401610645565b610b83816116fc565b60006001600160e01b031982167f80ac58cd00000000000000000000000000000000000000000000000000000000148061135357506001600160e01b031982167f5b5e139f00000000000000000000000000000000000000000000000000000000145b8061053857507f01ffc9a7000000000000000000000000000000000000000000000000000000006001600160e01b0319831614610538565b6000818152600460205260409020805473ffffffffffffffffffffffffffffffffffffffff19166001600160a01b03841690811790915581906113cd82610d99565b6001600160a01b03167f8c5be1e5ebec7d5bd14f71427d1e84f3dd0314c0f7b2291e5b200ac8c7c3b92560405160405180910390a45050565b610d958282604051806020016040528060008152506119da565b6000818152600260205260408120546001600160a01b03166114995760405162461bcd60e51b815260206004820152602c60248201527f4552433732313a206f70657261746f7220717565727920666f72206e6f6e657860448201526b34b9ba32b73a103a37b5b2b760a11b6064820152608401610645565b60006114a483610d99565b9050806001600160a01b0316846001600160a01b031614806114df5750836001600160a01b03166114d4846105d0565b6001600160a01b0316145b8061150f57506001600160a01b0380821660009081526005602090815260408083209388168352929052205460ff165b949350505050565b826001600160a01b031661152a82610d99565b6001600160a01b0316146115a65760405162461bcd60e51b815260206004820152602560248201527f4552433732313a207472616e736665722066726f6d20696e636f72726563742060448201527f6f776e65720000000000000000000000000000000000000000000000000000006064820152608401610645565b6001600160a01b0382166116215760405162461bcd60e51b8152602060048201526024808201527f4552433732313a207472616e7366657220746f20746865207a65726f2061646460448201527f72657373000000000000000000000000000000000000000000000000000000006064820152608401610645565b61162c838383611a58565b61163760008261138b565b6001600160a01b0383166000908152600360205260408120805460019290611660908490612492565b90915550506001600160a01b038216600090815260036020526040812080546001929061168e9084906124a9565b9091555050600081815260026020526040808220805473ffffffffffffffffffffffffffffffffffffffff19166001600160a01b0386811691821790925591518493918716917fddf252ad1be2c89b69c2b068fc378daa952ba7f163c4a11628f55a4df523b3ef91a4505050565b600b80546001600160a01b0383811673ffffffffffffffffffffffffffffffffffffffff19831681179093556040519116919082907f8be0079c531659141344cd1fd0a4f28419497f9722a3daafe3b4186f6b6457e090600090a35050565b816001600160a01b0316836001600160a01b031614156117bd5760405162461bcd60e51b815260206004820152601960248201527f4552433732313a20617070726f766520746f2063616c6c6572000000000000006044820152606401610645565b6001600160a01b03838116600081815260056020908152604080832094871680845294825291829020805460ff191686151590811790915591519182527f17307eab39ab6107e8899845ad3d59bd9653f200f220920489ca2b5937696c31910160405180910390a3505050565b611835848484611517565b61184184848484611b10565b6110545760405162461bcd60e51b815260206004820152603260248201527f4552433732313a207472616e7366657220746f206e6f6e20455243373231526560448201527131b2b4bb32b91034b6b83632b6b2b73a32b960711b6064820152608401610645565b6060816118e857505060408051808201909152600181527f3000000000000000000000000000000000000000000000000000000000000000602082015290565b8160005b811561191257806118fc816124c1565b915061190b9050600a836124f2565b91506118ec565b60008167ffffffffffffffff81111561192d5761192d61212c565b6040519080825280601f01601f191660200182016040528015611957576020820181803683370190505b5090505b841561150f5761196c600183612492565b9150611979600a86612506565b6119849060306124a9565b60f81b81838151811061199957611999612380565b60200101907effffffffffffffffffffffffffffffffffffffffffffffffffffffffffffff1916908160001a9053506119d3600a866124f2565b945061195b565b6119e48383611c68565b6119f16000848484611b10565b6107975760405162461bcd60e51b815260206004820152603260248201527f4552433732313a207472616e7366657220746f206e6f6e20455243373231526560448201527131b2b4bb32b91034b6b83632b6b2b73a32b960711b6064820152608401610645565b6001600160a01b038316611ab357611aae81600880546000838152600960205260408120829055600182018355919091527ff3f7a9fe364faab93b216da50a3214154f22a0a2b415b23a84c8169e8b636ee30155565b611ad6565b816001600160a01b0316836001600160a01b031614611ad657611ad68382611dc3565b6001600160a01b038216611aed5761079781611e60565b826001600160a01b0316826001600160a01b031614610797576107978282611f0f565b60006001600160a01b0384163b15611c5d57604051630a85bd0160e11b81526001600160a01b0385169063150b7a0290611b5490339089908890889060040161251a565b602060405180830381600087803b158015611b6e57600080fd5b505af1925050508015611b9e575060408051601f3d908101601f19168201909252611b9b91810190612556565b60015b611c43573d808015611bcc576040519150601f19603f3d011682016040523d82523d6000602084013e611bd1565b606091505b508051611c3b5760405162461bcd60e51b815260206004820152603260248201527f4552433732313a207472616e7366657220746f206e6f6e20455243373231526560448201527131b2b4bb32b91034b6b83632b6b2b73a32b960711b6064820152608401610645565b805181602001fd5b6001600160e01b031916630a85bd0160e11b14905061150f565b506001949350505050565b6001600160a01b038216611cbe5760405162461bcd60e51b815260206004820181905260248201527f4552433732313a206d696e7420746f20746865207a65726f20616464726573736044820152606401610645565b6000818152600260205260409020546001600160a01b031615611d235760405162461bcd60e51b815260206004820152601c60248201527f4552433732313a20746f6b656e20616c7265616479206d696e746564000000006044820152606401610645565b611d2f60008383611a58565b6001600160a01b0382166000908152600360205260408120805460019290611d589084906124a9565b9091555050600081815260026020526040808220805473ffffffffffffffffffffffffffffffffffffffff19166001600160a01b03861690811790915590518392907fddf252ad1be2c89b69c2b068fc378daa952ba7f163c4a11628f55a4df523b3ef908290a45050565b60006001611dd084610eb2565b611dda9190612492565b600083815260076020526040902054909150808214611e2d576001600160a01b03841660009081526006602090815260408083208584528252808320548484528184208190558352600790915290208190555b5060009182526007602090815260408084208490556001600160a01b039094168352600681528383209183525290812055565b600854600090611e7290600190612492565b60008381526009602052604081205460088054939450909284908110611e9a57611e9a612380565b906000526020600020015490508060088381548110611ebb57611ebb612380565b6000918252602080832090910192909255828152600990915260408082208490558582528120556008805480611ef357611ef3612573565b6001900381819060005260206000200160009055905550505050565b6000611f1a83610eb2565b6001600160a01b039093166000908152600660209081526040808320868452825280832085905593825260079052919091209190915550565b828054611f5f90612345565b90600052602060002090601f016020900481019282611f815760008555611fc7565b82601f10611f9a57805160ff1916838001178555611fc7565b82800160010185558215611fc7579182015b82811115611fc7578251825591602001919060010190611fac565b50611fd3929150611fd7565b5090565b5b80821115611fd35760008155600101611fd8565b6001600160e01b031981168114610b8357600080fd5b60006020828403121561201457600080fd5b813561201f81611fec565b9392505050565b60005b83811015612041578181015183820152602001612029565b838111156110545750506000910152565b6000815180845261206a816020860160208601612026565b601f01601f19169290920160200192915050565b60208152600061201f6020830184612052565b6000602082840312156120a357600080fd5b5035919050565b80356001600160a01b03811681146120c157600080fd5b919050565b600080604083850312156120d957600080fd5b6120e2836120aa565b946020939093013593505050565b60008060006060848603121561210557600080fd5b61210e846120aa565b925061211c602085016120aa565b9150604084013590509250925092565b634e487b7160e01b600052604160045260246000fd5b600067ffffffffffffffff8084111561215d5761215d61212c565b604051601f8501601f19908116603f011681019082821181831017156121855761218561212c565b8160405280935085815286868601111561219e57600080fd5b858560208301376000602087830101525050509392505050565b6000602082840312156121ca57600080fd5b813567ffffffffffffffff8111156121e157600080fd5b8201601f810184136121f257600080fd5b61150f84823560208401612142565b634e487b7160e01b600052602160045260246000fd5b602081016005831061223957634e487b7160e01b600052602160045260246000fd5b91905290565b60006020828403121561225157600080fd5b61201f826120aa565b6000806040838503121561226d57600080fd5b612276836120aa565b91506020830135801515811461228b57600080fd5b809150509250929050565b600080600080608085870312156122ac57600080fd5b6122b5856120aa565b93506122c3602086016120aa565b925060408501359150606085013567ffffffffffffffff8111156122e657600080fd5b8501601f810187136122f757600080fd5b61230687823560208401612142565b91505092959194509250565b6000806040838503121561232557600080fd5b61232e836120aa565b915061233c602084016120aa565b90509250929050565b600181811c9082168061235957607f821691505b6020821081141561237a57634e487b7160e01b600052602260045260246000fd5b50919050565b634e487b7160e01b600052603260045260246000fd5b600082516123a8818460208701612026565b9190910192915050565b8054600090600181811c90808316806123cc57607f831692505b60208084108214156123ee57634e487b7160e01b600052602260045260246000fd5b81801561240257600181146124135761243f565b60ff1986168952848901965061243f565b876000528160002060005b868110156124375781548b82015290850190830161241e565b505084890196505b50505050505092915050565b600061201f82846123b2565b600061246382856123b2565b8351612473818360208801612026565b01949350505050565b634e487b7160e01b600052601160045260246000fd5b6000828210156124a4576124a461247c565b500390565b600082198211156124bc576124bc61247c565b500190565b60006000198214156124d5576124d561247c565b5060010190565b634e487b7160e01b600052601260045260246000fd5b600082612501576125016124dc565b500490565b600082612515576125156124dc565b500690565b60006001600160a01b0380871683528086166020840152508360408301526080606083015261254c6080830184612052565b9695505050505050565b60006020828403121561256857600080fd5b815161201f81611fec565b634e487b7160e01b600052603160045260246000fdfea26469706673582212204e947893bc50112f588265318ecf705c5bd10af34b2a7ca93d68fe535df3bb9864736f6c63430008090033",
  "linkReferences": {},
  "deployedLinkReferences": {}
}